:0400000007EF00F016
:100008005F8260ED0BF07EEF09F00150D96EDA6A7D
:10001800050ED926DF50026E0150D96EDA6A020E3B
:10002800D926DECF03F0DDCF04F003C0D9FF04C02A
:10003800DAFF0250DF160150D96EDA6A040ED926AB
:10004800DF50026E0150D96EDA6ADECF03F0DDCFE1
:1000580004F003C0D9FF04C0DAFFDF50021400091E
:10006800D8A439EF00F03BEF00F0BDEF00F00150ED
:10007800D96EDA6A0B0ED926DF50D8A446EF00F005
:1000880048EF00F0BDEF00F00150D96EDA6A070EB4
:10009800D926DECF02F0DECF03F0DECF04F0DECFCC
:1000A80005F00150D96EDA6A060ED926DF50D96EEE
:1000B800DA6ADECF06F0DECF07F0DECF08F0DECF5B
:1000C80009F00250065C0A6E035007580B6E045084
:1000D80008580C6E055009580D6E0D500C100B1079
:1000E80009E1330E0A5CD8A07CEF00F07EEF00F047
:1000F800BDEF00F00150D96EDA6A0D0ED926DF5037
:10010800D8B489EF00F08BEF00F093EF00F00150C6
:10011800D96EDA6A0D0ED926DF6A9AEF00F001501F
:10012800D96EDA6A0D0ED926010EDF6E0150D96E2E
:10013800DA6A0B0ED926010EDF6E0150D96EDA6A23
:10014800060ED926DF50D96EDA6A0150E16EE26AEE
:10015800070EE126DECFE6FFDECFE6FFDECFE6FFC5
:10016800DECFE6FF0150D96EDA6A0C0ED926010EF1
:10017800DF6E0150D96EDA6A040ED926DF50026E9E
:100188000150D96EDA6ADECF03F0DDCF04F003C088
:10019800D9FF04C0DAFFDF5002140009D8B4D7EF42
:1001A80000F0D9EF00F043EF01F00150D96EDA6AA0
:1001B8000B0ED926DF50D8B4E4EF00F0E6EF00F0DC
:1001C80043EF01F00150D96EDA6A070ED926DECF67
:1001D80002F0DECF03F0DECF04F0DECF05F00150F1
:1001E800D96EDA6A060ED926DF50D96EDA6ADECF02
:1001F80006F0DECF07F0DECF08F0DECF09F00250C0
:10020800065C0A6E035007580B6E045008580C6EB3
:10021800055009580D6E0D500C100B1009E1330EE6
:100228000A5CD8A01AEF01F01CEF01F043EF01F0CF
:100238000150D96EDA6A0B0ED926DF6A0150D96EE1
:10024800DA6A0E0ED926DF6A0150D96EDA6A0F0E05
:10025800D926DF6A0150D96EDA6A060ED926DF5030
:10026800D96EDA6A0150E16EE26A070EE126DECF46
:10027800E6FFDECFE6FFDECFE6FFDECFE6FF01508A
:10028800D96EDA6A040ED926DF50026E0150D96E93
:10029800DA6ADECF03F0DDCF04F003C0D9FF04C073
:1002A800DAFFDF5002140009D8A45DEF01F05FEF18
:1002B80001F0FDEF01F00150D96EDA6A0B0ED92674
:1002C800DF50D8B46AEF01F06CEF01F0FDEF01F0F8
:1002D8000150D96EDA6A070ED926DECF02F0DECFDA
:1002E80003F0DECF04F0DECF05F00150D96EDA6AF4
:1002F800060ED926DF50D96EDA6ADECF06F0DECFD9
:1003080007F0DECF08F0DECF09F00250065C0A6E77
:10031800035007580B6E045008580C6E05500958C6
:100328000D6E0D500C100BE1E90E0A5C030E0B5814
:10033800D8A0A1EF01F0A3EF01F0FDEF01F001500B
:10034800D96EDA6A070ED926DECF02F0DECF03F0C7
:10035800DECF04F0DECF05F00150D96EDA6A060E62
:10036800D926DF50D96EDA6ADECF06F0DECF07F085
:10037800DECF08F0DECF09F00250065C0A6E0350AB
:1003880007580B6E045008580C6E055009580D6E2E
:100398000D500C1009E1D10E0A5C070E0B58D8B0AD
:1003A800D8EF01F0DAEF01F0FDEF01F00150D96E5E
:1003B800DA6A0E0ED926010EDF6E0150D96EDA6A9E
:1003C8000D0ED926DF50D8B4ECEF01F0EEEF01F0B6
:1003D800F6EF01F00150D96EDA6A0D0ED926DF6A00
:1003E800FDEF01F00150D96EDA6A0D0ED926010E23
:1003F800DF6E0150D96EDA6A040ED926DF50026E1C
:100408000150D96EDA6ADECF03F0DDCF04F003C005
:10041800D9FF04C0DAFFDF5002140009D8A417EF8F
:1004280002F019EF02F086EF02F00150D96EDA6A95
:100438000B0ED926DF50D8B424EF02F026EF02F0D5
:1004480086EF02F00150D96EDA6A070ED926DECFA0
:1004580002F0DECF03F0DECF04F0DECF05F001506E
:10046800D96EDA6A060ED926DF50D96EDA6ADECF7F
:1004780006F0DECF07F0DECF08F0DECF09F002503D
:10048800065C0A6E035007580B6E045008580C6E31
:10049800055009580D6E0D500C100BE1D10E0A5C79
:1004A800070E0B58D8A05BEF02F05DEF02F086EF65
:1004B80002F00150D96EDA6A0E0ED926DF6A0150B1
:1004C800D96EDA6A0F0ED926010EDF6E0150D96E89
:1004D800DA6A0D0ED926DF50D8B475EF02F077EF3F
:1004E80002F07FEF02F00150D96EDA6A0D0ED926BC
:1004F800DF6A86EF02F00150D96EDA6A0D0ED9264E
:10050800010EDF6E0150D96EDA6A050ED926DF506A
:10051800FF0A026E0150D96EDA6A020ED926DECFC2
:1005280003F0DDCF04F003C0D9FF04C0DAFF0250A6
:10053800DF121200E8EC0BF0E1EC0BF0B2EC0AF081
:10054800CDEC0BF0930E016E0F0E026E810E036E52
:100558000F0E046E8A0E056E0F0E066E020E076EE3
:10056800050E086EF90E096E08EC05F020EEE5F0B0
:100578000F0EEBCFDBFFE806FCE2930E016E0F0EC9
:10058800026E810E036E0F0E046E8A0E056E0F0E3C
:10059800066E030E076E050E086EF90E096E08EC5E
:1005A80005F020EE75F00F0EEBCFDBFFE806FCE25E
:1005B800930E016E0F0E026E810E036E0F0E046E07
:1005C8008A0E056E0F0E066E040E076E050E086E77
:1005D800F90E096E08EC05F020EE85F00F0EEBCF52
:1005E800DBFFE806FCE2930E016E0F0E026E810E31
:1005F800036E0F0E046E8A0E056E0F0E066E020E47
:10060800076E060E086EF90E096E08EC05F020EE6E
:10061800C5F00F0EEBCFDBFFE806FCE2930E016E90
:100628000F0E026E810E036E0F0E046E8A0E056E9B
:100638000F0E066E030E076E060E086EF90E096E93
:1006480008EC05F020EE95F00F0EEBCFDBFFE80687
:10065800FCE2930E016E0F0E026E810E036E0F0EFA
:10066800046E8A0E056E0F0E066E040E076E060ED9
:10067800086EF90E096E08EC05F020EED5F00F0EA5
:10068800EBCFDBFFE806FCE2930E016E0F0E026E65
:10069800810E036E0F0E046E8A0E056E0F0E066E27
:1006A800020E076E070E086EF90E096E08EC05F0CB
:1006B80020EEA5F00F0EEBCFDBFFE806FCE2930E71
:1006C800016E0F0E026E810E036E0F0E046E8A0EFF
:1006D800056E0F0E066E030E076E070E086EF90EF6
:1006E800096E08EC05F020EEB5F00F0EEBCFDBFF3E
:1006F800E806FCE2930E016E0F0E026E810E036E89
:100708000F0E046E8A0E056E0F0E066E040E076E2F
:10071800070E086EF90E096E08EC05F020EE65F07C
:100728000F0EEBCFDBFFE806FCE2010E0001626F63
:10073800636B646B640E016E000E026E000E036E36
:10074800000E046EE2EC0AF037EC09F0E50E016EDB
:1007580009EC00F0750E016E09EC00F0850E016ED3
:1007680009EC00F0C50E016E09EC00F0950E016E63
:1007780009EC00F0D50E016E09EC00F0A50E016E33
:1007880009EC00F0B50E016E09EC00F0650E016E83
:1007980009EC00F00001F151D8A4D5EF03F0D7EF30
:1007A80003F0E7EF03F0F351D8A4DDEF03F0DFEF38
:1007B80003F0E7EF03F0F451D8B4E5EF03F0E7EF07
:1007C80003F015EF04F0F16BFF0EA3EC0BF0000142
:1007D800606F605152EC06F0496E49C030F0316AE2
:1007E80063C032F064C033F09DEC08F00001616F23
:1007F8006151060DF35064276C0E646506EF04F032
:1008080008EF04F00AEF04F0632B646B070E6365CE
:1008180010EF04F012EF04F015EF04F0636B06EC30
:100828000AF000018151D8B41CEF04F01EEF04F067
:1008380026EF04F0816B06EC0AF00001636B646B31
:10084800CDEC0BF000019151D8B42DEF04F02FEF4F
:1008580004F03AEF04F0916B050E306E010E316E24
:10086800000E326E000E336E9DEC08F00001D1517F
:10087800D8B441EF04F043EF04F051EF04F0D16B2A
:10088800D251D8B44AEF04F04CEF04F04FEF04F023
:10089800626B51EF04F0010E626FA151D8B457EFAB
:1008A80004F059EF04F060EF04F0A16BEAEC08F0F3
:1008B80001C0FDF002C0FEF00001E151D8B467EFBD
:1008C80004F069EF04F077EF04F0E16BE251D8B47B
:1008D80070EF04F072EF04F075EF04F0FF6B77EF40
:1008E80004F0010EFF6FB151D8B47DEF04F07FEF33
:1008F80004F08AEF04F0B16B000E306E000E316E1A
:1009080063C032F064C033F09DEC08F00001C151BF
:10091800D8B491EF04F093EF04F094EF04F0C16BB6
:10092800FDC001F0FEC002F0010E036EFFC004F02E
:100938003F0E056E7E0E066E050E076E000E086EE3
:10094800C6EC05F0F5C00AF0F6C00BF0F7C00CF0E5
:10095800F8C00DF0100E0E6E0E0E0F6E000E106E1B
:10096800000E116EFEEC07F00A50546E100E056E64
:100978000E0E066E000E076E000E086EF5C001F032
:10098800F6C002F0F7C003F0F8C004F0C2EC09F0BA
:1009980001C00AF002C00BF003C00CF004C00DF057
:1009A8003C0E0E6E000E0F6E000E106E000E116ED5
:1009B800FEEC07F00A50536EF5C001F0F6C002F0E5
:1009C800F7C003F0F8C004F03C0E056E000E066E8A
:1009D800000E076E000E086EC2EC09F00150526E50
:1009E80000016251D8B4FBEF04F0FDEF04F0AAEF68
:1009F80003F053C03AF052C03BF05450D6EC06F026
:100A0800AAEF03F007EF00F003C012F004C013F0E0
:100A180005C014F006C015F032EF05F0010E166E91
:100A280075EF05F0020E166E75EF05F0040E166EE2
:100A380075EF05F0080E166E75EF05F0100E166EC0
:100A480075EF05F0200E166E75EF05F0400E166E68
:100A580075EF05F0800E166E75EF05F00750000A69
:100A6800D8B412EF05F0010AD8B416EF05F0030A5E
:100A7800D8B41AEF05F0010AD8B41EEF05F0070A3A
:100A8800D8B422EF05F0010AD8B426EF05F0030A1E
:100A9800D8B42AEF05F0010AD8B42EEF05F075EFA7
:100AA80005F0FE0E176E98EF05F0FD0E176E98EF25
:100AB80005F0FB0E176E98EF05F0F70E176E98EF1E
:100AC80005F0EF0E176E98EF05F0DF0E176E98EF32
:100AD80005F0BF0E176E98EF05F07F0E176E98EFB2
:100AE80005F00850000AD8B455EF05F0010AD8B44B
:100AF80059EF05F0030AD8B45DEF05F0010AD8B440
:100B080061EF05F0070AD8B465EF05F0010AD8B41B
:100B180069EF05F0030AD8B46DEF05F0010AD8B4FF
:100B280071EF05F098EF05F001C0D9FF02C0DAFFB8
:100B38001650DF1201C0D9FF02C0DAFF1750DF16C6
:100B48001750FF0A116E05C0D9FF06C0DAFF115011
:100B5800DF1209C018F01D6A1E6A1F6A206A216A1E
:100B6800000E196E000E1A6E000E1B6E000E1C6E23
:100B780020EE12F000EE01F00F0EDBCFEBFFE806DF
:100B8800FCE212000150096E02500A6E0B6A0C6AF0
:100B98004A500001F95D0D6E4B50FA590E6E4C50DB
:100BA800FB590F6E4D50FC59106E09500D5C0A50E0
:100BB8000E580B500F580C501058D8A0E6EF05F0FF
:100BC800E8EF05F013EF06F00350D8B4EEEF05F0A8
:100BD800F0EF05F013EF06F0F9C04AF0FAC04BF059
:100BE800FBC04CF0FCC04DF00450D8B4FEEF05F04B
:100BF80000EF06F006EF06F0010EF527000EF623CB
:100C0800F723F8230450D8A40CEF06F00EEF06F0F3
:100C180013EF06F0F507000EF65BF75BF85BF5518E
:100C2800055CF6510658F7510758F8510858D8B0DE
:100C380020EF06F022EF06F032EF06F0FF51D8B4AD
:100C480028EF06F02AEF06F032EF06F0000EF56FF7
:100C5800000EF66F000EF76F000EF86FF551055C89
:100C6800F6510658F7510758F8510858D8B03FEFD1
:100C780006F041EF06F051EF06F0FF51D8A447EF18
:100C880006F049EF06F051EF06F005C0F5F006C092
:100C9800F6F007C0F7F008C0F8F012002F6E2FC06A
:100CA80013F0146A000E166E0A0E156EA7EC07F004
:100CB80013502E6E000E166E640E156E2FC013F0B4
:100CC800146AA7EC07F013C019F014C01AF0000E4C
:100CD8001C6E0A0E1B6E46EC07F019502D6E2FC0C5
:100CE80019F01A6A000E1C6E640E1B6E46EC07F0B3
:100CF8001950276E630E2F6484EF06F086EF06F016
:100D08009EEF06F0000E236E000E246E000E256E78
:100D1800000E266E275050EC08F0236E2D5050EC34
:100D280008F0246E2E5050EC08F0256E266A230E2B
:100D3800D5EF06F0090E2F64A4EF06F0A6EF06F033
:100D4800C0EF06F0640E2F60ACEF06F0AEEF06F0D1
:100D5800C0EF06F0000E286E000E296E000E2A6EF7
:100D68002D5050EC08F0286E2E5050EC08F0296EEB
:100D78002A6A280ED5EF06F00A0E2F60C6EF06F095
:100D8800C8EF06F0D4EF06F0000E2C6E000E2B6EA6
:100D98002E5050EC08F02B6E2C6A2B0ED5EF06F077
:100DA800000E1200486E3BC013F0146A000E166E57
:100DB8000A0E156EA7EC07F01350456E3AC013F0F3
:100DC800146A000E166E0A0E156EA7EC07F0135083
:100DD800466E48C013F0146A000E166E0A0E156EA1
:100DE800A7EC07F01350476E3BC019F01A6A000EC3
:100DF8001C6E0A0E1B6E46EC07F019503B6E3AC08B
:100E080019F01A6A000E1C6E0A0E1B6E46EC07F0EB
:100E180019503A6E48C019F01A6A000E1C6E0A0E74
:100E28001B6E46EC07F01950486E20EE3CF0080E99
:100E3800DE6AE806FDE2485050EC08F03C6E475088
:100E480050EC08F03D6E3A0E3E6E3A5050EC08F009
:100E58003F6E465050EC08F0406E3A0E416E3B50E3
:100E680050EC08F0426E455050EC08F0436E446A6E
:100E78003C0E306E316A070E326E000E336E9DECFA
:100E880008F012001E6A1CBE4EEF07F04CEF07F088
:100E980054EF07F01B6C1C1ED8B01C2A010E1E6EE6
:100EA8001ABE5BEF07F059EF07F061EF07F0196C16
:100EB8001A1ED8B01A2A010E1E1A000E206E000E35
:100EC8001F6E1B501C10D8B46CEF07F06EEF07F0C4
:100ED80096EF07F0010E1D6E76EF07F0D8901B36DF
:100EE8001C361D2A1CAE7BEF07F07DEF07F072EF72
:100EF80007F0D8901F3620361B50195C1C501A5822
:100F0800D8A089EF07F08BEF07F090EF07F01B50A0
:100F1800195E1C501A5A1F80D8901C321B321D2E85
:100F28007DEF07F01E50D8B49CEF07F09EEF07F056
:100F3800A2EF07F01F6C201ED8B0202A1FC019F09E
:100F480020C01AF01200186A14BEAFEF07F0ADEF18
:100F580007F0B5EF07F0136C141ED8B0142A010E71
:100F6800186E16BEBCEF07F0BAEF07F0C0EF07F037
:100F7800156C161ED8B0162A15501610D8B4C7EF1F
:100F880007F0C9EF07F0EDEF07F0010E176ED1EF8C
:100F980007F0D89015361636172A16AED6EF07F092
:100FA800D8EF07F0CDEF07F01550135C1650145822
:100FB800D8A0E1EF07F0E3EF07F0E7EF07F01550EF
:100FC800135E1650145AD89016321532172ED8EFD1
:100FD80007F01850D8B4F3EF07F0F5EF07F0F9EF82
:100FE80007F0136C141ED8B0142A13C013F014C0E1
:100FF80014F01200000E126E000E136E000E146E26
:10100800000E156E0E500F1010101110D8B40FEFFF
:1010180008F011EF08F047EF08F0010E166E1BEF0D
:1010280008F0D8900E360F3610361136162A11AE43
:1010380020EF08F022EF08F015EF08F0D8901236EC
:101048001336143615360E500A5C0F500B581050D4
:101058000C5811500D58D8A034EF08F036EF08F0AE
:101068003FEF08F00E500A5E0F500B5A10500C5A02
:1010780011500D5A1280D890113210320F320E32A0
:10108800162E22EF08F012C00AF013C00BF014C09D
:101098000CF015C00DF01200016E71EF08F0300E63
:1010A8009CEF08F0310E9CEF08F0320E9CEF08F030
:1010B800330E9CEF08F0340E9CEF08F0350E9CEFD1
:1010C80008F0360E9CEF08F0370E9CEF08F0380E4B
:1010D8009CEF08F0390E9CEF08F00150000AD8B4D4
:1010E80053EF08F0010AD8B456EF08F0030AD8B451
:1010F80059EF08F0010AD8B45CEF08F0070AD8B431
:101108005FEF08F0010AD8B462EF08F0030AD8B418
:1011180065EF08F0010AD8B468EF08F00F0AD8B4F0
:101128006BEF08F0010AD8B46EEF08F09CEF08F0F6
:10113800120030503110D8A4A4EF08F0A6EF08F040
:10114800B2EF08F021EE00F010EE34F0040EDBCF21
:10115800E3FFE806FCE2340E306E316A396ADAEFF2
:1011680008F032C013F033C014F039503024D96E6F
:10117800000E3120DA6EDF5090EC0BF0060E3326AD
:101188007A0E3364CAEF08F0CCEF08F0CEEF08F01F
:10119800322A336A070E3264D4EF08F0D6EF08F02B
:1011A800D9EF08F0000EE9EF08F0392A3950302459
:1011B800D96E000E3120DA6EDF50D8A4E6EF08F0C1
:1011C800E8EF08F0B5EF08F039501200040E5D188A
:1011D8005E10D8A4F2EF08F0F4EF08F012EF09F06F
:1011E800000E5E6E000E5D6E12EF09F0030E066EC5
:1011F800E80E056E30EF09F0000E066E640E056EFF
:1012080030EF09F0000E066E0A0E056E30EF09F099
:10121800000E066E010E056E30EF09F05DC003F09A
:101228005EC004F00450000AD8B41DEF09F030EF96
:1012380009F00350000AD8B4FAEF08F0010AD8B44C
:1012480000EF09F0030AD8B406EF09F0010AD8B490
:101258000CEF09F030EF09F05D4A5E2A05C001F095
:1012680006C002F01200D7EC0BF092969298808894
:101278008086828C010E016E000E026E000E036ED7
:10128800000E046EE2EC0AF08098010E016E000E6A
:10129800026E000E036E000E046EE2EC0AF0808807
:1012A8008096A20EEFEC0BF0A00EEFEC0BF0C80E40
:1012B800EFEC0BF0250EEFEC0BF02F0EEFEC0BF034
:1012C800810EEFEC0BF0200EEFEC0BF0400EEFEC84
:1012D8000BF0B00EEFEC0BF0100EEFEC0BF0000E75
:1012E800EFEC0BF0AF0EEFEC0BF0A60EEFEC0BF003
:1012F80080861200FA0EF66E160EF76E000EF86E65
:1013080001EE00F010EE26F00900F5CFEEFFE550F3
:10131800E150FAE1EC0EF66E170EF76E000EF86E5D
:101328000900F5CFFDF00900F5CFFEF00900F5CF73
:10133800FFF0EF0EF66E170EF76E000EF86E09004E
:10134800F5CF5DF00900F5CF5EF001EE26F0200E36
:10135800EE6AE806FDE100EEF5F0080EEE6AE80632
:10136800FDE100EE4AF00F0EEE6AE806FDE15F903F
:101378005F92000EF86E00019EEF02F00550061015
:1013880007100810D8B4CBEF09F0CDEF09F0FDEF46
:1013980009F0010E096ED7EF09F0D8900536063628
:1013A80007360836092A08AEDCEF09F0DEEF09F047
:1013B800D1EF09F00550015C065002580750035858
:1013C80008500458D8A0EBEF09F0EDEF09F0F5EF5D
:1013D80009F00550015E0650025A0750035A08509A
:1013E800045AD8900832073206320532092EDEEF49
:1013F80009F001C001F002C002F003C003F004C00C
:1014080004F012000C6AB00E0C24026E036A000E7F
:101418000322000E056E100E046E000E076E000EFD
:10142800066E030E43EC0BF0070E0C641EEF0AF079
:1014380020EF0AF021EF0AF00C6A0B6A000EEFECBD
:101448000BF00B2A7F0E0B642CEF0AF02EEF0AF03C
:1014580022EF0AF00C2A070E0C6435EF0AF037EF7A
:101468000AF007EF0AF0000E036EB00E026E000ECF
:10147800056E100E046E000E076E000E066E030E4B
:1014880043EC0BF0120059C001F05AC002F05BC0E7
:1014980003F05CC004F02D0E056E7F0E066E950EEF
:1014A800076E4C0E086E7DEC0AF0010E0124596E91
:1014B800000E02205A6E000E03205B6E000E042000
:1014C8005C6E59C00FF05AC010F05BC011F05CC0E0
:1014D80012F0120E75EF0AF0D89012321132103253
:1014E8000F32E82E70EF0AF00FC00DF010C00EF0AA
:1014F8001200000E096E000E0A6E000E0B6E000E32
:101508000C6E01A08AEF0AF08CEF0AF094EF0AF053
:101518000550092606500A2207500B2208500C22B3
:10152800D8900536063607360836D8900432033286
:10153800023201320150021003100410D8A4A7EFA0
:101548000AF0A9EF0AF085EF0AF009C001F00AC015
:1015580002F00BC003F00CC004F01200F28EF28C03
:10156800F29AF298F296F19EF19CF19AF198F19420
:10157800F190F09EF09CF098F0969D9C9D9A9D9815
:101588009D969D949D929D80A09EA09CA09AA098B7
:10159800A096A094A092A0909F9C9F9A9F989F9697
:1015A8009F949F929F80A29EA29CA29AA298A29684
:1015B800A294A292A290D09ED09C1200F9C009F0E9
:1015C800FAC00AF0FBC00BF0FCC00CF00950000197
:1015D800F95D056E0A50FA59066E0B50FB59076EF5
:1015E8000C50FC59086E0150055C02500658035017
:1015F800075804500858D8A004EF0BF006EF0BF07A
:10160800EAEF0AF01200126E12500F0B106E123829
:101618000F0B116EB00E0BC00CF00D6A0C10026EA1
:101628000D50036E100E11C00EF00F6A0E10046EEE
:101638000F50056E10C006F0076A030E43EC0BF05E
:101648001200829C076A38EF0BF007500224056EDF
:10165800000E0320066E05C0F6FF06C0F7FF08005F
:10166800F550C1EC0BF0072A0450075CD8A03FEFF7
:101678000BF041EF0BF029EF0BF0828C1200086E93
:101688008096829C020E096E0A6A54EF0BF009508C
:10169800D96EDA6ADF50C1EC0BF0020E09260A2A6D
:1016A80008500A5CD8A05BEF0BF05DEF0BF04BEF36
:1016B8000BF08086828C120006009DA066EF0BF06E
:1016C80068EF0BF07BEF0BF09EA06DEF0BF06FEF68
:1016D8000BF07BEF0BF0200ECE26D10ECF6E9E9036
:1016E800010E0001F927000EFA23FB23FC235F9269
:1016F80011004E554C4C00CFF0E8E2E5F22C20CC1E
:10170800E8F0212121212048656C6C6F2C20576F4F
:10171800726C642121212100156E13C00BF0145046
:1017280007EC0BF01550050DFF0EF324026E7A0E30
:10173800F420036E050E046E25EC0BF01200196EF2
:1017480047EC0AF00DC013F00EC014F0010E192476
:10175800156E166A000E1622A7EC07F01350120039
:10176800FF0E0124036EFF0E0220046E03C059F021
:1017780004C05AF05B6A5C6A1200016E01C0C9FFBE
:10178800C7A0C9EF0BF0CBEF0BF0C4EF0BF0C950BB
:101798001200CF500001F925016E000EFA21026EE9
:1017A800B4EC0BF0120093929380949E949C828CDC
:1017B800320EC66EC78EC79C1200050ECD6E200E67
:1017C800CE6ED10ECF6E1200C70ED56E200ED66E1D
:1017D800D10ED76E1200026E829C0250C1EC0BF043
:0917E800828C1200E803010100EB
:1075BE00000000FE7F0240FA5FFA5FFA5FFA5FFAA0
:1075CE005FFA5F0240FA5FFA5FFA5FFA5FFA5FFAFC
:1075DE005F0240FA5FFA5FFA5FFA5FFA5FFA5F02E4
:1075EE0040FA5FFA5FFA5FFA5FC243DE7B1008F083
:1075FE000F0000FE7F0240FA5FFA5FFA5FFA5FFA51
:10760E005FFA5F0240FA5FFA5FFA5FFA5FFA5FFABB
:10761E005F0240FA5FFA5FFA5FFA5FFA5FFA5F02A3
:10762E0040FA5F0A500A507A5E4242DE7B1008F042
:10763E000F0000FE7F0240FA5FFA5FFA5FFA5FFA10
:10764E005FFA5F0240FA5FFA5FFA5FFA5FFA5FFA7B
:10765E005F0240FA5FFA5FFA5FFA5FFA5FFA5F0263
:10766E0040024002400240024002401E781008F0E4
:10767E000F0000FE7F0240FA5FFA5FFA5FFA5FFAD0
:10768E005FFA5F0240FA5FFA5FFA5FFA5FFA5FFA3B
:10769E005F0240FA5F0A500A500A500A50FA5F021F
:1076AE0040024002400240024002401E781008F0A4
:1076BE000F0000FE7F0240FA5FFA5FFA5FFA5FFA90
:1076CE005FFA5F0240FA5FFA5FFA5FFA5FFA5FFAFB
:1076DE005F0240024002400240024002400240026D
:1076EE0040024002400240024002401E781008F064
:1076FE000F0000FE7F0240FA5FFA5FFA5FFA5FFA50
:10770E005FFA5F0240FA5F0A500A500A500A50FAB6
:10771E005F0240024002400240024002400240022C
:10772E0040024002400240024002401E781008F023
:10773E000F0000FE7F0240FA5FFA5FFA5FFA5FFA0F
:10774E005FFA5F02400240024002400240024002E5
:10775E00400240024002400240024002400240020B
:10776E0040024002400240024002401E781008F0E3
:10777E000F0000FE7F0240FA5F0A500A500A500ABC
:10778E0050FA5F02400240024002400240024002B4
:10779E0040024002400240024002400240024002CB
:1077AE0040024002400240024002401E781008F0A3
:1077BE000F0000FE7F0240024002400240024002E3
:1077CE00400240024002400240024002400240029B
:1077DE00400240024002400240024002400240028B
:1077EE0040024002400240024002401E781008F063
:1077FE000F0000000000000000000000000000006C
:10780E00000000000000000000000000000000006A
:10781E00000000000000000000000000000000005A
:10782E00000000000000000000000000000000004A
:10783E00000000000000000000000000000000003A
:10784E000000000000000000401F00F80300E0FFF1
:10785E0000FC5F00F0FF07FFFF00BC7F0FDFFF01A2
:10786E00DFFF1FAFFF03EFFF1F55D7C7F7FF1F80C7
:10787E00EEFFFFFF3B55D5FDFFFF7700E87AFFFFD8
:10788E007F55D5DD47FF7F00A0FE03FE6F55D5FF68
:10789E0001FC7F00807700F87F55D57F00F07F00D8
:1078AE00C03C00F03F55F57EC0F03F00E03FE0E108
:1078BE003B55BD3FF0F11D00F83FE0F01C55DF7F5A
:1078CE0000781D00EEFF01B81E557F80075E1F80F9
:1078DE003B80072E0ED53F000E571F800F00CC8128
:1078EE000FD50F00CCD11FE00600FCE83FF50600D7
:1078FE007CF47D6006003CB8EE7506001CFCFF7043
:10790E0006060EBEFE750C0F0777F7600C8F83A36D
:10791E00EA7538C4C1557FE038E0E0807FD5F17D4F
:10792E0070D57F80C13F30C03FD5C31F78F51F0093
:10793E0007001C781E5507005C3D7F003C000FBE03
:10794E00E3553D8057FFC100F88003E6E057F5E1AF
:10795E00D5F3F107C0E7C0F9735E557FD51D1F3C07
:10796E00003EE00D1E70555575079FF00000300764
:10797E00FBE05555350FF3800300B8F960005755FD
:10798E00DDF970001E00F8F0FC007C55FDF0DD0006
:10799E00F000F8B8EF00E055FD19D700C001B81F90
:1079AE00E300005735C6D700000F30CEE100005C73
:1079BE00F5FBD5000078C0FBF8000070D57FFD0008
:1079CE0000E003E8FF0000C057F5FF0000000FFEC7
:1079DE00FF0000005FFFFF000000BCFFFF00000083
:1079EE00F0FFFF000000F0FFFFF00FFC3FFC3F0E2A
:1079FE0070066006600E70FC3FFC3FF00F0000004A
:107A0E0000186018601860FE7FFE7FFE7F00600029
:107A1E006000600000000000001C600E700678061A
:107A2E007C067E066F8E67FE63FC61F86000600068
:107A3E00001C380E700660C660C660C660E671FE39
:107A4E003FBC3F381F00000000000E000FC00DE0CD
:107A5E000C380C1C0CFE7FFE7FFE7F000C000C0011
:107A6E00000038FE70FE60FE60C660C660C671C65D
:107A7E003F863F060F00000000E00FF83FFC3F9CE2
:107A8E0070CE60C660C671C67F863F001F000000C4
:107A9E0000064006700678063E860FC607F6017E83
:107AAE00003E000E0000000000381E7C3FFE7FC628
:107ABE0071C661C661C673FE7F7C3F381E00000032
:107ACE0000F000FC61FC638E63066306730E39FCE6
:107ADE003FFC1FF007000000000000000000000047
:107AEE0000F03CF03CF03C00000000000000000004
:107AFE00007F7F7F7F7F7F7F7F7F7F0808780000FA
:107B0E0000000F080808080F000000007F000008A2
:107B1E0008080808001C3E1C00001C361C00000053
:107B2E000000000000000000000000000000003E09
:107B3E003E000000000000000000000000000000F9
:107B4E000008087F080800081C3E0014367F361413
:107B5E00005F005F000E117F017F08080F08080804
:107B6E000878080808087F000004027F020400005D
:107B7E007F080808083E1C08081C3E080800000084
:107B8E0000000000000000000000000000000000E7
:107B9E0000000000000000065F060000070007005E
:107BAE00147F147F1406497F4930433308666136CB
:107BBE0049552250000007000000003E41000041E0
:107BCE003E0000000502050008083E08080040308F
:107BDE0000000008080800000020000000601806E1
:107BEE00003E5149453E00427F40000062514946E9
:107BFE0000224149361814127F0000274949313EB0
:107C0E00494949320001710D033649494936264921
:107C1E0049493E00001200000040320000081422C4
:107C2E004100242424242400412214080002510976
:107C3E0006324979413E7E1111117E7F49494936FE
:107C4E003E414141227F4141221C7F494949007FEB
:107C5E00090901003E415131727F0808087F004139
:107C6E007F41000020413F017F08142241007F40E8
:107C7E0040407F020C027F7F0408107F3E4141414D
:107C8E003E7F090906003E4151215E7F09192946B2
:107C9E00264949493201017F01013F4040403F1FC3
:107CAE002040201F3F4030403F63140814630708F4
:107CBE007008076151494543007F41410000061895
:107CCE0060000041417F0004020102044040404038
:107CDE0040000001060000205454787F44443800D0
:107CEE0038444444003844447F003854541800103B
:107CFE007E1102000854543C007F040478000000FA
:107D0E007D000020403D00007F1028440000417F90
:107D1E0040007C047804787C0404780038444444A1
:107D2E00387C242418001824247C00007C080404C9
:107D3E000854542000043F4420003C4040207C1C4A
:107D4E002040201C3C4030403C4428102844004C2D
:107D5E00503C004464544C44000836410000007FFF
:107D6E00000000413608000201020402000000007B
:107D7E0000000000000000000000000000000000F5
:107D8E0000000000000000000000000000000000E5
:107D9E0000000000000000000000000000000000D5
:107DAE0000000000000000000000000000000000C5
:107DBE0000000000000000000000000000000000B5
:107DCE0000000000000000000000000000000000A5
:107DDE000000000000000000000000000000000095
:107DEE000000000000000000000000000000000085
:107DFE000000000000000000000000000000000075
:107E0E000000000000000000000000000000000064
:107E1E000000000000000000000000000000000054
:107E2E000000000000000000000000000000000044
:107E3E0000000000004A5529007C5554555400009E
:107E4E000000003E49494922081422081404040483
:107E5E00040C0008080800000000000000017C016E
:107E6E0000000205020000242E240000007F000006
:107E7E0000000000000000000000000000000006EE
:107E8E000F7F017F000002000038555419000000DA
:107E9E000000003854544400140822140800007ADC
:107EAE00000026494949320008545420000074004D
:107EBE00007E1111117E7F494949317F494949366A
:107ECE007F01010103603E21217F7F4949494977A6
:107EDE00087F087722414949367F1008047F7F10BA
:107EEE0009047F7F0814224120403F017F7F020C4E
:107EFE00027F7F0808087F3E4141413E7F0101011C
:107F0E007F7F090909063E4141412201017F01019E
:107F1E002748483F000E117F110E63140814633F6B
:107F2E0020203F600F08087F007F407F407F3F206A
:107F3E003F207F017F4848307F4830007F7F484890
:107F4E003000224149493E7F083E413E46291909EB
:107F5E007F00205454783C4A4930007C5454280009
:107F6E00007C040400603824247C38545418006CBF
:107F7E00107C106C00445428007C2010087C7C215E
:107F8E0011097C7C10284400403C047C007C0810C5
:107F9E00087C7C10107C0038444438007C04047C3F
:107FAE00007C24241800003844440004047C04049B
:107FBE00004C503C0018247C241844281028443CC3
:107FCE0020203C60001C107C007C407C407C3C20CF
:107FDE003C207C047C5070007C5070007C007C50F7
:107FEE00700000545438007C107C447C4834147C5F
:027FFE00000081
:020000040030CA
:0E000000240E191EFF8080FF0FC00FE00F407E
:00000001FF
