:0400000007EF00F016
:10000800548281ED0BF066EF09F020EE05F0015007
:10001800D9260250DA22DF50036E20EE02F001509A
:10002800D9260250DA22DECF04F0DDCF05F004C075
:10003800D9FF05C0DAFF0350DF1620EE04F00150A7
:10004800D9260250DA22DF50036E01C0D9FF02C060
:10005800DAFFDECF04F0DDCF05F004C0D9FF05C01C
:10006800DAFFDF5003140009D8A43DEF00F03FEF9A
:1000780000F0CBEF00F020EE0BF00150D926025033
:10008800DA22DF50D8A44BEF00F04DEF00F0CBEFB1
:1000980000F020EE07F00150D9260250DA22DECF18
:1000A80003F0DECF04F0DECF05F0DECF06F020EE61
:1000B80006F00150D9260250DA22DF50D96EDA6AEA
:1000C800DECF07F0DECF08F0DECF09F0DECF0AF092
:1000D8000350075C0B6E045008580C6E0550095805
:1000E8000D6E06500A580E6E0E500D100C1009E1D8
:1000F800330E0B5CD8A083EF00F085EF00F0CBEF58
:1001080000F020EE0DF00150D9260250DA22DF501F
:10011800D8B491EF00F093EF00F09CEF00F020EEE0
:100128000DF00150D9260250DA22DF6AA4EF00F060
:1001380020EE0DF00150D9260250DA22010EDF6EB2
:1001480020EE0BF00150D9260250DA22010EDF6EA4
:1001580020EE06F00150D9260250DA22DF50D96E7F
:10016800DA6A10EE07F00150E1260250E222DECFF3
:10017800E6FFDECFE6FFDECFE6FFDECFE6FF20EECE
:100188000CF00150D9260250DA22010EDF6E20EE63
:1001980004F00150D9260250DA22DF50036E01C064
:1001A800D9FF02C0DAFFDECF04F0DDCF05F004C0CE
:1001B800D9FF05C0DAFFDF5003140009D8B4E7EF10
:1001C80000F0E9EF00F05BEF01F020EE0BF00150DA
:1001D800D9260250DA22DF50D8B4F5EF00F0F7EF55
:1001E80000F05BEF01F020EE07F00150D926025035
:1001F800DA22DECF03F0DECF04F0DECF05F0DECF6B
:1002080006F020EE06F00150D9260250DA22DF501F
:10021800D96EDA6ADECF07F0DECF08F0DECF09F05C
:10022800DECF0AF00350075C0B6E045008580C6EC2
:10023800055009580D6E06500A580E6E0E500D10D6
:100248000C1009E1330E0B5CD8A02DEF01F02FEF55
:1002580001F05BEF01F020EE0BF00150D9260250BF
:10026800DA22DF6A20EE0EF00150D9260250DA2297
:10027800DF6A20EE0FF00150D9260250DA22DF6A39
:1002880020EE06F00150D9260250DA22DF50D96E4E
:10029800DA6A10EE07F00150E1260250E222DECFC2
:1002A800E6FFDECFE6FFDECFE6FFDECFE6FF20EE9D
:1002B80004F00150D9260250DA22DF50036E01C043
:1002C800D9FF02C0DAFFDECF04F0DDCF05F004C0AD
:1002D800D9FF05C0DAFFDF5003140009D8A477EF6F
:1002E80001F079EF01F020EF02F020EE0BF0015061
:1002F800D9260250DA22DF50D8B485EF01F087EF13
:1003080001F020EF02F020EE07F00150D92602504C
:10031800DA22DECF03F0DECF04F0DECF05F0DECF49
:1003280006F020EE06F00150D9260250DA22DF50FE
:10033800D96EDA6ADECF07F0DECF08F0DECF09F03B
:10034800DECF0AF00350075C0B6E045008580C6EA1
:10035800055009580D6E06500A580E6E0E500D10B5
:100368000BE1E90E0B5C030E0C58D8A0BEEF01F0B0
:10037800C0EF01F020EF02F020EE07F00150D9267F
:100388000250DA22DECF03F0DECF04F0DECF05F034
:10039800DECF06F020EE06F00150D9260250DA2210
:1003A800DF50D96EDA6ADECF07F0DECF08F0DECF95
:1003B80009F0DECF0AF00350075C0B6E04500858B2
:1003C8000C6E055009580D6E06500A580E6E0E50E8
:1003D8000D1009E1D10E0B5C070E0C58D8B0F7EFE1
:1003E80001F0F9EF01F020EF02F020EE0EF00150DD
:1003F800D9260250DA22010EDF6E20EE0DF00150F0
:10040800D9260250DA22DF50D8B40DEF02F00FEFF0
:1004180002F018EF02F020EE0DF00150D92602503C
:10042800DA22DF6A20EF02F020EE0DF00150D92623
:100438000250DA22010EDF6E20EE04F00150D926B8
:100448000250DA22DF50036E01C0D9FF02C0DAFF82
:10045800DECF04F0DDCF05F004C0D9FF05C0DAFF18
:10046800DF5003140009D8A43CEF02F03EEF02F07D
:10047800B3EF02F020EE0BF00150D9260250DA2239
:10048800DF50D8B44AEF02F04CEF02F0B3EF02F0BD
:1004980020EE07F00150D9260250DA22DECF03F011
:1004A800DECF04F0DECF05F0DECF06F020EE06F05A
:1004B8000150D9260250DA22DF50D96EDA6ADECF2F
:1004C80007F0DECF08F0DECF09F0DECF0AF00350E8
:1004D800075C0B6E045008580C6E055009580D6ED9
:1004E80006500A580E6E0E500D100BE1D10E0B5C23
:1004F800070E0C58D8A083EF02F085EF02F0B3EF97
:1005080002F020EE0EF00150D9260250DA22DF6AFE
:1005180020EE0FF00150D9260250DA22010EDF6ECC
:1005280020EE0DF00150D9260250DA22DF50D8B45F
:10053800A0EF02F0A2EF02F0ABEF02F020EE0DF018
:100548000150D9260250DA22DF6AB3EF02F020EE1A
:100558000DF00150D9260250DA22010EDF6E20EE8E
:1005680005F00150D9260250DA22DF50FF0A036E47
:1005780020EE02F00150D9260250DA22DECF04F034
:10058800DDCF05F004C0D9FF05C0DAFF0350DF1244
:10059800120010EC0CF009EC0CF0D3EC0AF0F5ECBE
:1005A8000BF0930E016E0F0E026E810E036E0F0E8E
:1005B800046E8A0E056E0F0E066E020E076E050E8D
:1005C800086E710E096E41EC05F021EE85F00F0EF4
:1005D800EBCFDBFFE806FCE2930E016E0F0E026E16
:1005E800810E036E0F0E046E8A0E056E0F0E066ED8
:1005F800030E076E050E086E710E096E41EC05F0CC
:1006080021EE15F00F0EEBCFDBFFE806FCE2930EB0
:10061800016E0F0E026E810E036E0F0E046E8A0EAF
:10062800056E0F0E066E040E076E050E086E710E2F
:10063800096E41EC05F021EE25F00F0EEBCFDBFF44
:10064800E806FCE2930E016E0F0E026E810E036E39
:100658000F0E046E8A0E056E0F0E066E020E076EE2
:10066800060E086E710E096E41EC05F021EE65F07C
:100678000F0EEBCFDBFFE806FCE2930E016E0F0EC8
:10068800026E810E036E0F0E046E8A0E056E0F0E3B
:10069800066E030E076E060E086E710E096E41ECAB
:1006A80005F021EE35F00F0EEBCFDBFFE806FCE29C
:1006B800930E016E0F0E026E810E036E0F0E046E06
:1006C8008A0E056E0F0E066E040E076E060E086E75
:1006D800710E096E41EC05F021EE75F00F0EEBCFAF
:1006E800DBFFE806FCE2930E016E0F0E026E810E30
:1006F800036E0F0E046E8A0E056E0F0E066E020E46
:10070800076E070E086E710E096E41EC05F021EEBA
:1007180045F00F0EEBCFDBFFE806FCE2930E016E0F
:100728000F0E026E810E036E0F0E046E8A0E056E9A
:100738000F0E066E030E076E070E086E710E096E19
:1007480041EC05F021EE55F00F0EEBCFDBFFE8068C
:10075800FCE2930E016E0F0E026E810E036E0F0EF9
:10076800046E8A0E056E0F0E066E040E076E070ED7
:10077800086E710E096E41EC05F021EE05F00F0EC2
:10078800EBCFDBFFE806FCE2010E0101026F036B11
:10079800046B640E016E000E026E000E036E000EF6
:1007A800046E03EC0BF01FEC09F0850E016E010ED0
:1007B800026E09EC00F0150E016E010E026E09ECD6
:1007C80000F0250E016E010E026E09EC00F0650EB8
:1007D800016E010E026E09EC00F0350E016E010E7D
:1007E800026E09EC00F0750E016E010E026E09EC46
:1007F80000F0450E016E010E026E09EC00F0550E78
:10080800016E010E026E09EC00F0050E016E010E7C
:10081800026E09EC00F001019151D8A416EF04F022
:1008280018EF04F028EF04F09351D8A41EEF04F059
:1008380020EF04F028EF04F09451D8B426EF04F028
:1008480028EF04F056EF04F0916BFF0ECBEC0BF0A1
:100858000101006F005106EC07F0376E37C030F029
:10086800316A03C132F004C133F02FEC0AF0010100
:10087800016F0151060DF35004276C0E046547EF14
:1008880004F049EF04F04BEF04F0032B046B070E60
:10089800036551EF04F053EF04F056EF04F0036BD7
:1008A800EEEC09F001012151D8B45DEF04F05FEFDF
:1008B80004F067EF04F0216BEEEC09F00101036B23
:1008C800046BF5EC0BF001013151D8B46EEF04F074
:1008D80070EF04F07BEF04F0316B950E306E010E73
:1008E800316E000E326E000E336E2FEC0AF00101ED
:1008F8007151D8B482EF04F084EF04F092EF04F061
:10090800716B7251D8B48BEF04F08DEF04F090EF57
:1009180004F0026B92EF04F0010E026F4151D8B45B
:1009280098EF04F09AEF04F0A1EF04F0416BD2ECD9
:1009380008F001C075F002C076F001018151D8B409
:10094800A8EF04F0AAEF04F0BAEF04F0816B82512B
:10095800D8B4B1EF04F0B3EF04F0B7EF04F000013E
:10096800776BBAEF04F0010E0001776F0101515166
:10097800D8B4C1EF04F0C3EF04F0C4EF04F0516B36
:100988006151D8B4CAEF04F0CCEF04F0CDEF04F015
:10099800616B75C001F076C002F0010E036E77C07E
:1009A80004F03F0E056E7E0E066E050E076E000EF5
:1009B800086EFFEC05F06DC00AF06EC00BF06FC05A
:1009C8000CF070C00DF0100E0E6E0E0E0F6E000EB5
:1009D800106E000E116E33EC08F00A50466E100EC1
:1009E800056E0E0E066E000E076E000E086E6DC0C8
:1009F80001F06EC002F06FC003F070C004F0AAEC02
:100A080009F001C00AF002C00BF003C00CF004C0EA
:100A18000DF03C0E0E6E000E0F6E000E106E000EE6
:100A2800116E33EC08F00A50456E6DC001F06EC0CF
:100A380002F06FC003F070C004F03C0E056E000EAB
:100A4800066E000E076E000E086EAAEC09F0015043
:100A5800446E01010251D8B434EF05F036EF05F0C9
:100A6800D9EF03F045C035F044C036F046508BEC62
:100A780006F0D9EF03F007EF00F003C012F004C04E
:100A880013F005C014F006C015F06BEF05F0010E69
:100A9800166EAEEF05F0020E166EAEEF05F0040E00
:100AA800166EAEEF05F0080E166EAEEF05F0100EDE
:100AB800166EAEEF05F0200E166EAEEF05F0400E86
:100AC800166EAEEF05F0800E166EAEEF05F007500D
:100AD800000AD8B44BEF05F0010AD8B44FEF05F07F
:100AE800030AD8B453EF05F0010AD8B457EF05F05C
:100AF800070AD8B45BEF05F0010AD8B45FEF05F038
:100B0800030AD8B463EF05F0010AD8B467EF05F01B
:100B1800AEEF05F0FE0E176ED1EF05F0FD0E176E65
:100B2800D1EF05F0FB0E176ED1EF05F0F70E176E3B
:100B3800D1EF05F0EF0E176ED1EF05F0DF0E176E4F
:100B4800D1EF05F0BF0E176ED1EF05F07F0E176ECF
:100B5800D1EF05F00850000AD8B48EEF05F0010A6D
:100B6800D8B492EF05F0030AD8B496EF05F0010A5D
:100B7800D8B49AEF05F0070AD8B49EEF05F0010A39
:100B8800D8B4A2EF05F0030AD8B4A6EF05F0010A1D
:100B9800D8B4AAEF05F0D1EF05F001C0D9FF02C023
:100BA800DAFF1650DF1201C0D9FF02C0DAFF175072
:100BB800DF161750FF0A116E05C0D9FF06C0DAFF0D
:100BC8001150DF1209C018F01D6A1E6A1F6A206AD8
:100BD800216A000E196E000E1A6E000E1B6E000EB2
:100BE8001C6E20EE12F000EE01F00F0EDBCFEBFFD3
:100BF800E806FCE212000150096E02500A6E0B6A08
:100C08000C6A38500001715D0D6E395072590E6EC4
:100C18003A5073590F6E3B507459106E09500D5C61
:100C28000A500E580B500F580C501058D8A01FEFF0
:100C380006F021EF06F04CEF06F00350D8B427EF8A
:100C480006F029EF06F04CEF06F071C038F072C0DC
:100C580039F073C03AF074C03BF00450D8B437EFA1
:100C680006F039EF06F03FEF06F0010E6D27000E93
:100C78006E236F2370230450D8A445EF06F047EF86
:100C880006F04CEF06F06D07000E6E5B6F5B705B55
:100C98006D51055C6E5106586F51075870510858D0
:100CA800D8B059EF06F05BEF06F06BEF06F077511E
:100CB800D8B461EF06F063EF06F06BEF06F0000EB4
:100CC8006D6F000E6E6F000E6F6F000E706F6D51BE
:100CD800055C6E5106586F51075870510858D8B0C6
:100CE80078EF06F07AEF06F08AEF06F07751D8A48D
:100CF80080EF06F082EF06F08AEF06F005C06DF08F
:100D080006C06EF007C06FF008C070F01200000156
:100D18006C6F36C013F0146A000E166E0A0E156E4C
:100D2800DCEC07F013500001696F35C013F0146A4A
:100D3800000E166E0A0E156EDCEC07F0135000015B
:100D48006A6F6CC013F0146A000E166E0A0E156EE8
:100D5800DCEC07F0135000016B6F36C019F01A6A0B
:100D6800000E1C6E0A0E1B6E7BEC07F01950366ED7
:100D780035C019F01A6A000E1C6E0A0E1B6E7BEC49
:100D880007F01950356E6CC019F01A6A000E1C6E07
:100D98000A0E1B6E7BEC07F0195000016C6F20EEF9
:100DA80060F0080EDE6AE806FDE26C5185EC08F09A
:100DB8000001606F6B5185EC08F00001616F3A0E1D
:100DC800626F355085EC08F00001636F6A5185EC5D
:100DD80008F00001646F3A0E656F365085EC08F034
:100DE8000001666F695185EC08F00001676F686B58
:100DF800600E306E316A070E326E000E336E2FECC5
:100E08000AF012002C6E2CC013F0146A000E166E35
:100E18000A0E156EDCEC07F013502E6E2E5085EC82
:100E280008F02E6E000E166E640E156E2CC013F0B0
:100E3800146ADCEC07F013C019F014C01AF0000EA5
:100E48001C6E0A0E1B6E7BEC07F019502F6E2CC01F
:100E580019F01A6A000E1C6E640E1B6E7BEC07F00C
:100E680019502D6E2D50D8A43CEF07F03EEF07F037
:100E780062EF07F02F50D8A444EF07F046EF07F0D1
:100E880050EF07F0000E2B6E000E2A6E2EC02AF0CF
:100E98002B6A2A0E7AEF07F02F5085EC08F02F6E98
:100EA800000E276E000E286E000E296E2FC027F048
:100EB8002EC028F0296A270E7AEF07F02F5085EC0C
:100EC80008F02F6E2D5085EC08F02D6E000E236E65
:100ED800000E246E000E256E000E266E2DC023F027
:100EE8002FC024F02EC025F0266A230E12001E6A99
:100EF8001CBE83EF07F081EF07F089EF07F01B6C4A
:100F08001C1ED8B01C2A010E1E6E1ABE90EF07F0E8
:100F18008EEF07F096EF07F0196C1A1ED8B01A2A50
:100F2800010E1E1A000E206E000E1F6E1B501C10A4
:100F3800D8B4A1EF07F0A3EF07F0CBEF07F0010E4D
:100F48001D6EABEF07F0D8901B361C361D2A1CAE61
:100F5800B0EF07F0B2EF07F0A7EF07F0D8901F3611
:100F680020361B50195C1C501A58D8A0BEEF07F049
:100F7800C0EF07F0C5EF07F01B50195E1C501A5A56
:100F88001F80D8901C321B321D2EB2EF07F01E5066
:100F9800D8B4D1EF07F0D3EF07F0D7EF07F01F6C05
:100FA800201ED8B0202A1FC019F020C01AF0120045
:100FB800186A14BEE4EF07F0E2EF07F0EAEF07F073
:100FC800136C141ED8B0142A010E186E16BEF1EF59
:100FD80007F0EFEF07F0F5EF07F0156C161ED8B025
:100FE800162A15501610D8B4FCEF07F0FEEF07F0DC
:100FF80022EF08F0010E176E06EF08F0D8901536AC
:101008001636172A16AE0BEF08F00DEF08F002EFB0
:1010180008F01550135C16501458D8A016EF08F0B5
:1010280018EF08F01CEF08F01550135E1650145A0C
:10103800D89016321532172E0DEF08F01850D8B484
:1010480028EF08F02AEF08F02EEF08F0136C141EB2
:10105800D8B0142A13C013F014C014F01200000EF4
:10106800126E000E136E000E146E000E156E0E50EA
:101078000F1010101110D8B444EF08F046EF08F024
:101088007CEF08F0010E166E50EF08F0D8900E367F
:101098000F3610361136162A11AE55EF08F057EFF5
:1010A80008F04AEF08F0D890123613361436153681
:1010B8000E500A5C0F500B5810500C5811500D5818
:1010C800D8A069EF08F06BEF08F074EF08F00E5045
:1010D8000A5E0F500B5A10500C5A11500D5A1280BC
:1010E800D890113210320F320E32162E57EF08F008
:1010F80012C00AF013C00BF014C00CF015C00DF0AC
:101108001200016EA6EF08F0300ED1EF08F0310E94
:10111800D1EF08F0320ED1EF08F0330ED1EF08F01E
:10112800340ED1EF08F0350ED1EF08F0360ED1EFBE
:1011380008F0370ED1EF08F0380ED1EF08F0390E6D
:10114800D1EF08F00150000AD8B488EF08F0010A7E
:10115800D8B48BEF08F0030AD8B48EEF08F0010A70
:10116800D8B491EF08F0070AD8B494EF08F0010A50
:10117800D8B497EF08F0030AD8B49AEF08F0010A38
:10118800D8B49DEF08F00F0AD8B4A0EF08F0010A10
:10119800D8B4A3EF08F0D1EF08F01200040E5218EB
:1011A8005310D8A4DAEF08F0DCEF08F0FAEF08F0F3
:1011B800000E536E000E526EFAEF08F0030E066E24
:1011C800E80E056E18EF09F0000E066E640E056E47
:1011D80018EF09F0000E066E0A0E056E18EF09F0FA
:1011E800000E066E010E056E18EF09F052C003F0EE
:1011F80053C004F00450000AD8B405EF09F018EF02
:1012080009F00350000AD8B4E2EF08F0010AD8B494
:10121800E8EF08F0030AD8B4EEEF08F0010AD8B4F2
:10122800F4EF08F018EF09F0524A532A05C001F00C
:1012380006C002F01200FFEC0BF09296929880889C
:101248008086828C010E016E000E026E000E036E07
:10125800000E046E03EC0BF08098010E016E000E78
:10126800026E000E036E000E046E03EC0BF0808815
:101278008096A20E17EC0CF0A00E17EC0CF0C80E1E
:1012880017EC0CF0250E17EC0CF02F0E17EC0CF0E9
:10129800810E17EC0CF0200E17EC0CF0400E17EC3A
:1012A8000CF0B00E17EC0CF0100E17EC0CF0000E52
:1012B80017EC0CF0AF0E17EC0CF0A60E17EC0CF0B8
:1012C800808612003C0EF66E170EF76E000EF86E52
:1012D80001EE95F010EE33F00900F5CFEEFFE55082
:1012E800E150FAE13C0EF66E180EF76E000EF86E3D
:1012F8000900F5CF75F00900F5CF76F00900F5CFB4
:1013080077F03F0EF66E180EF76E000EF86E0900B5
:10131800F5CF52F00900F5CF53F001EEC8F0190EE1
:10132800EE6AE806FDE100EE6DF0080EEE6AE806EA
:10133800FDE100EE38F0160EEE6AE806FDE1549085
:101348005492000EF86E0001CDEF02F00550061021
:1013580007100810D8B4B3EF09F0B5EF09F0E5EFBE
:1013680009F0010E096EBFEF09F0D8900536063670
:1013780007360836092A08AEC4EF09F0C6EF09F0A7
:10138800B9EF09F00550015C0650025807500358A0
:1013980008500458D8A0D3EF09F0D5EF09F0DDEFD5
:1013A80009F00550015E0650025A0750035A0850CA
:1013B800045AD8900832073206320532092EC6EF91
:1013C80009F001C001F002C002F003C003F004C03C
:1013D80004F012000C6AB00E0C24026E036A000EB0
:1013E8000322000E056E100E046E000E076E000E2E
:1013F800066E030E64EC0BF0070E0C6406EF0AF0A1
:1014080008EF0AF009EF0AF00C6A0B6A000E17ECF5
:101418000CF00B2A7F0E0B6414EF0AF016EF0AF09B
:101428000AEF0AF00C2A070E0C641DEF0AF01FEFF2
:101438000AF0EFEF09F0000E036EB00E026E000E18
:10144800056E100E046E000E076E000E066E030E7B
:1014580064EC0BF01200346A57EF0AF032C013F054
:1014680033C014F034503024D96E000E3120DA6EB7
:10147800DF50B8EC0BF0060E33267A0E336447EFD4
:101488000AF049EF0AF04BEF0AF0322A336A070EE6
:10149800326451EF0AF053EF0AF056EF0AF0000EEB
:1014A80067EF0AF0342A34503024D96E000E312008
:1014B800DA6EDF50D8A463EF0AF065EF0AF032EF76
:1014C8000AF0342A345012004EC001F04FC002F026
:1014D80050C003F051C004F02D0E056E7F0E066E4D
:1014E800950E076E4C0E086E9EEC0AF0010E012454
:1014F8004E6E000E02204F6E000E0320506E000E3E
:101508000420516E4EC00FF04FC010F050C011F0C3
:1015180051C012F0120E96EF0AF0D8901232113222
:1015280010320F32E82E91EF0AF00FC00DF010C004
:101538000EF01200000E096E000E0A6E000E0B6E01
:10154800000E0C6E01A0ABEF0AF0ADEF0AF0B5EF9C
:101558000AF00550092606500A2207500B220850A7
:101568000C22D8900536063607360836D89004324D
:101578000332023201320150021003100410D8A4C1
:10158800C8EF0AF0CAEF0AF0A6EF0AF009C001F0A6
:101598000AC002F00BC003F00CC004F01200F28E77
:1015A800F28CF29AF298F296F19EF19CF19AF198E7
:1015B800F194F190F09EF09CF098F0969D9C9D9A85
:1015C8009D989D969D949D929D80A09EA09CA09A7A
:1015D800A098A096A094A092A0909F9C9F9A9F9854
:1015E8009F969F949F929F80A29EA29CA29AA29847
:1015F800A296A294A292A290D09ED09C120071C0F2
:1016080009F072C00AF073C00BF074C00CF00950F6
:101618000001715D056E0A507259066E0B507359C0
:10162800076E0C507459086E0150055C025006583C
:101638000350075804500858D8A025EF0BF027EF9F
:101648000BF00BEF0BF01200126E12500F0B106E16
:1016580012380F0B116EB00E0BC00CF00D6A0C1087
:10166800026E0D50036E100E11C00EF00F6A0E10B0
:10167800046E0F50056E10C006F0076A030E64EC86
:101688000BF01200829C076A59EF0BF007500224F6
:10169800056E000E0320066E05C0F6FF06C0F7FFB4
:1016A8000800F550E9EC0BF0072A0450075CD8A0B5
:1016B80060EF0BF062EF0BF04AEF0BF0828C120038
:1016C800086E8096829C020E096E0A6A75EF0BF00E
:1016D8000950D96EDA6ADF50E9EC0BF0020E0926E0
:1016E8000A2A08500A5CD8A07CEF0BF07EEF0BF0BA
:1016F8006CEF0BF08086828C120006009DA087EFAD
:101708000BF089EF0BF09CEF0BF09EA08EEF0BF027
:1017180090EF0BF09CEF0BF0200ECE26D10ECF6E83
:101728009E90010E00017127000E7223732374230B
:1017380054921100EFBFBDEFBFBDEFBFBDEFBFBDFE
:10174800EFBFBDEFBFBD2C20EFBFBDEFBFBDEFBFEB
:10175800BD212121212048656C6C6F2C20576F72A8
:071768006C64212121210026
:10177000156E13C00BF0145028EC0BF01550050D2E
:10178000FF0EF324026E7A0EF420036E050E046E33
:1017900046EC0BF01200196E68EC0AF00DC013F065
:1017A0000EC014F0010E1924156E166A000E1622D2
:1017B000DCEC07F013501200FF0E0124036EFF0E45
:1017C0000220046E03C04EF004C04FF0506A516A0C
:1017D0001200016E01C0C9FFC7A0F1EF0BF0F3EFDB
:1017E0000BF0ECEF0BF0C9501200CF500001712547
:1017F000016E000E7221026EDCEC0BF0120093926F
:101800009380949E949C828C320EC66EC78EC79C29
:101810001200050ECD6E200ECE6ED10ECF6E1200D0
:10182000C70ED56E200ED66ED10ED76E1200026E88
:10183000829C0250E9EC0BF0828C1200E80301015B
:0118400000A7
:1075BE00000000FE7F0240FA5FFA5FFA5FFA5FFAA0
:1075CE005FFA5F0240FA5FFA5FFA5FFA5FFA5FFAFC
:1075DE005F0240FA5FFA5FFA5FFA5FFA5FFA5F02E4
:1075EE0040FA5FFA5FFA5FFA5FC243DE7B1008F083
:1075FE000F0000FE7F0240FA5FFA5FFA5FFA5FFA51
:10760E005FFA5F0240FA5FFA5FFA5FFA5FFA5FFABB
:10761E005F0240FA5FFA5FFA5FFA5FFA5FFA5F02A3
:10762E0040FA5F0A500A507A5E4242DE7B1008F042
:10763E000F0000FE7F0240FA5FFA5FFA5FFA5FFA10
:10764E005FFA5F0240FA5FFA5FFA5FFA5FFA5FFA7B
:10765E005F0240FA5FFA5FFA5FFA5FFA5FFA5F0263
:10766E0040024002400240024002401E781008F0E4
:10767E000F0000FE7F0240FA5FFA5FFA5FFA5FFAD0
:10768E005FFA5F0240FA5FFA5FFA5FFA5FFA5FFA3B
:10769E005F0240FA5F0A500A500A500A50FA5F021F
:1076AE0040024002400240024002401E781008F0A4
:1076BE000F0000FE7F0240FA5FFA5FFA5FFA5FFA90
:1076CE005FFA5F0240FA5FFA5FFA5FFA5FFA5FFAFB
:1076DE005F0240024002400240024002400240026D
:1076EE0040024002400240024002401E781008F064
:1076FE000F0000FE7F0240FA5FFA5FFA5FFA5FFA50
:10770E005FFA5F0240FA5F0A500A500A500A50FAB6
:10771E005F0240024002400240024002400240022C
:10772E0040024002400240024002401E781008F023
:10773E000F0000FE7F0240FA5FFA5FFA5FFA5FFA0F
:10774E005FFA5F02400240024002400240024002E5
:10775E00400240024002400240024002400240020B
:10776E0040024002400240024002401E781008F0E3
:10777E000F0000FE7F0240FA5F0A500A500A500ABC
:10778E0050FA5F02400240024002400240024002B4
:10779E0040024002400240024002400240024002CB
:1077AE0040024002400240024002401E781008F0A3
:1077BE000F0000FE7F0240024002400240024002E3
:1077CE00400240024002400240024002400240029B
:1077DE00400240024002400240024002400240028B
:1077EE0040024002400240024002401E781008F063
:1077FE000F0000000000000000000000000000006C
:10780E00000000000000000000000000000000006A
:10781E00000000000000000000000000000000005A
:10782E00000000000000000000000000000000004A
:10783E00000000000000000000000000000000003A
:10784E000000000000000000401F00F80300E0FFF1
:10785E0000FC5F00F0FF07FFFF00BC7F0FDFFF01A2
:10786E00DFFF1FAFFF03EFFF1F55D7C7F7FF1F80C7
:10787E00EEFFFFFF3B55D5FDFFFF7700E87AFFFFD8
:10788E007F55D5DD47FF7F00A0FE03FE6F55D5FF68
:10789E0001FC7F00807700F87F55D57F00F07F00D8
:1078AE00C03C00F03F55F57EC0F03F00E03FE0E108
:1078BE003B55BD3FF0F11D00F83FE0F01C55DF7F5A
:1078CE0000781D00EEFF01B81E557F80075E1F80F9
:1078DE003B80072E0ED53F000E571F800F00CC8128
:1078EE000FD50F00CCD11FE00600FCE83FF50600D7
:1078FE007CF47D6006003CB8EE7506001CFCFF7043
:10790E0006060EBEFE750C0F0777F7600C8F83A36D
:10791E00EA7538C4C1557FE038E0E0807FD5F17D4F
:10792E0070D57F80C13F30C03FD5C31F78F51F0093
:10793E0007001C781E5507005C3D7F003C000FBE03
:10794E00E3553D8057FFC100F88003E6E057F5E1AF
:10795E00D5F3F107C0E7C0F9735E557FD51D1F3C07
:10796E00003EE00D1E70555575079FF00000300764
:10797E00FBE05555350FF3800300B8F960005755FD
:10798E00DDF970001E00F8F0FC007C55FDF0DD0006
:10799E00F000F8B8EF00E055FD19D700C001B81F90
:1079AE00E300005735C6D700000F30CEE100005C73
:1079BE00F5FBD5000078C0FBF8000070D57FFD0008
:1079CE0000E003E8FF0000C057F5FF0000000FFEC7
:1079DE00FF0000005FFFFF000000BCFFFF00000083
:1079EE00F0FFFF000000F0FFFFF00FFC3FFC3F0E2A
:1079FE0070066006600E70FC3FFC3FF00F0000004A
:107A0E0000186018601860FE7FFE7FFE7F00600029
:107A1E006000600000000000001C600E700678061A
:107A2E007C067E066F8E67FE63FC61F86000600068
:107A3E00001C380E700660C660C660C660E671FE39
:107A4E003FBC3F381F00000000000E000FC00DE0CD
:107A5E000C380C1C0CFE7FFE7FFE7F000C000C0011
:107A6E00000038FE70FE60FE60C660C660C671C65D
:107A7E003F863F060F00000000E00FF83FFC3F9CE2
:107A8E0070CE60C660C671C67F863F001F000000C4
:107A9E0000064006700678063E860FC607F6017E83
:107AAE00003E000E0000000000381E7C3FFE7FC628
:107ABE0071C661C661C673FE7F7C3F381E00000032
:107ACE0000F000FC61FC638E63066306730E39FCE6
:107ADE003FFC1FF007000000000000000000000047
:107AEE0000F03CF03CF03C00000000000000000004
:107AFE00007F7F7F7F7F7F7F7F7F7F0808780000FA
:107B0E0000000F080808080F000000007F000008A2
:107B1E0008080808001C3E1C00001C361C00000053
:107B2E000000000000000000000000000000003E09
:107B3E003E000000000000000000000000000000F9
:107B4E000008087F080800081C3E0014367F361413
:107B5E00005F005F000E117F017F08080F08080804
:107B6E000878080808087F000004027F020400005D
:107B7E007F080808083E1C08081C3E080800000084
:107B8E0000000000000000000000000000000000E7
:107B9E0000000000000000065F060000070007005E
:107BAE00147F147F1406497F4930433308666136CB
:107BBE0049552250000007000000003E41000041E0
:107BCE003E0000000502050008083E08080040308F
:107BDE0000000008080800000020000000601806E1
:107BEE00003E5149453E00427F40000062514946E9
:107BFE0000224149361814127F0000274949313EB0
:107C0E00494949320001710D033649494936264921
:107C1E0049493E00001200000040320000081422C4
:107C2E004100242424242400412214080002510976
:107C3E0006324979413E7E1111117E7F49494936FE
:107C4E003E414141227F4141221C7F494949007FEB
:107C5E00090901003E415131727F0808087F004139
:107C6E007F41000020413F017F08142241007F40E8
:107C7E0040407F020C027F7F0408107F3E4141414D
:107C8E003E7F090906003E4151215E7F09192946B2
:107C9E00264949493201017F01013F4040403F1FC3
:107CAE002040201F3F4030403F63140814630708F4
:107CBE007008076151494543007F41410000061895
:107CCE0060000041417F0004020102044040404038
:107CDE0040000001060000205454787F44443800D0
:107CEE0038444444003844447F003854541800103B
:107CFE007E1102000854543C007F040478000000FA
:107D0E007D000020403D00007F1028440000417F90
:107D1E0040007C047804787C0404780038444444A1
:107D2E00387C242418001824247C00007C080404C9
:107D3E000854542000043F4420003C4040207C1C4A
:107D4E002040201C3C4030403C4428102844004C2D
:107D5E00503C004464544C44000836410000007FFF
:107D6E00000000413608000201020402000000007B
:107D7E0000000000000000000000000000000000F5
:107D8E0000000000000000000000000000000000E5
:107D9E0000000000000000000000000000000000D5
:107DAE0000000000000000000000000000000000C5
:107DBE0000000000000000000000000000000000B5
:107DCE0000000000000000000000000000000000A5
:107DDE000000000000000000000000000000000095
:107DEE000000000000000000000000000000000085
:107DFE000000000000000000000000000000000075
:107E0E000000000000000000000000000000000064
:107E1E000000000000000000000000000000000054
:107E2E000000000000000000000000000000000044
:107E3E0000000000004A5529007C5554555400009E
:107E4E000000003E49494922081422081404040483
:107E5E00040C0008080800000000000000017C016E
:107E6E0000000205020000242E240000007F000006
:107E7E0000000000000000000000000000000006EE
:107E8E000F7F017F000002000038555419000000DA
:107E9E000000003854544400140822140800007ADC
:107EAE00000026494949320008545420000074004D
:107EBE00007E1111117E7F494949317F494949366A
:107ECE007F01010103603E21217F7F4949494977A6
:107EDE00087F087722414949367F1008047F7F10BA
:107EEE0009047F7F0814224120403F017F7F020C4E
:107EFE00027F7F0808087F3E4141413E7F0101011C
:107F0E007F7F090909063E4141412201017F01019E
:107F1E002748483F000E117F110E63140814633F6B
:107F2E0020203F600F08087F007F407F407F3F206A
:107F3E003F207F017F4848307F4830007F7F484890
:107F4E003000224149493E7F083E413E46291909EB
:107F5E007F00205454783C4A4930007C5454280009
:107F6E00007C040400603824247C38545418006CBF
:107F7E00107C106C00445428007C2010087C7C215E
:107F8E0011097C7C10284400403C047C007C0810C5
:107F9E00087C7C10107C0038444438007C04047C3F
:107FAE00007C24241800003844440004047C04049B
:107FBE00004C503C0018247C241844281028443CC3
:107FCE0020203C60001C107C007C407C407C3C20CF
:107FDE003C207C047C5070007C5070007C007C50F7
:107FEE00700000545438007C107C447C4834147C5F
:027FFE00000081
:020000040030CA
:0E000000240E191EFF8080FF0FC00FE00F407E
:00000001FF
