:0400000007EF00F016
:100008005F826AED0BF088EF09F00150D96EDA6A69
:10001800050ED926DF50026E0150D96EDA6A020E3B
:10002800D926DECF03F0DDCF04F003C0D9FF04C02A
:10003800DAFF0250DF160150D96EDA6A040ED926AB
:10004800DF50026E0150D96EDA6ADECF03F0DDCFE1
:1000580004F003C0D9FF04C0DAFFDF50021400091E
:10006800D8A439EF00F03BEF00F0BDEF00F00150ED
:10007800D96EDA6A0B0ED926DF50D8A446EF00F005
:1000880048EF00F0BDEF00F00150D96EDA6A070EB4
:10009800D926DECF02F0DECF03F0DECF04F0DECFCC
:1000A80005F00150D96EDA6A060ED926DF50D96EEE
:1000B800DA6ADECF06F0DECF07F0DECF08F0DECF5B
:1000C80009F00250065C0A6E035007580B6E045084
:1000D80008580C6E055009580D6E0D500C100B1079
:1000E80009E1330E0A5CD8A07CEF00F07EEF00F047
:1000F800BDEF00F00150D96EDA6A0D0ED926DF5037
:10010800D8B489EF00F08BEF00F093EF00F00150C6
:10011800D96EDA6A0D0ED926DF6A9AEF00F001501F
:10012800D96EDA6A0D0ED926010EDF6E0150D96E2E
:10013800DA6A0B0ED926010EDF6E0150D96EDA6A23
:10014800060ED926DF50D96EDA6A0150E16EE26AEE
:10015800070EE126DECFE6FFDECFE6FFDECFE6FFC5
:10016800DECFE6FF0150D96EDA6A0C0ED926010EF1
:10017800DF6E0150D96EDA6A040ED926DF50026E9E
:100188000150D96EDA6ADECF03F0DDCF04F003C088
:10019800D9FF04C0DAFFDF5002140009D8B4D7EF42
:1001A80000F0D9EF00F043EF01F00150D96EDA6AA0
:1001B8000B0ED926DF50D8B4E4EF00F0E6EF00F0DC
:1001C80043EF01F00150D96EDA6A070ED926DECF67
:1001D80002F0DECF03F0DECF04F0DECF05F00150F1
:1001E800D96EDA6A060ED926DF50D96EDA6ADECF02
:1001F80006F0DECF07F0DECF08F0DECF09F00250C0
:10020800065C0A6E035007580B6E045008580C6EB3
:10021800055009580D6E0D500C100B1009E1330EE6
:100228000A5CD8A01AEF01F01CEF01F043EF01F0CF
:100238000150D96EDA6A0B0ED926DF6A0150D96EE1
:10024800DA6A0E0ED926DF6A0150D96EDA6A0F0E05
:10025800D926DF6A0150D96EDA6A060ED926DF5030
:10026800D96EDA6A0150E16EE26A070EE126DECF46
:10027800E6FFDECFE6FFDECFE6FFDECFE6FF01508A
:10028800D96EDA6A040ED926DF50026E0150D96E93
:10029800DA6ADECF03F0DDCF04F003C0D9FF04C073
:1002A800DAFFDF5002140009D8A45DEF01F05FEF18
:1002B80001F0FDEF01F00150D96EDA6A0B0ED92674
:1002C800DF50D8B46AEF01F06CEF01F0FDEF01F0F8
:1002D8000150D96EDA6A070ED926DECF02F0DECFDA
:1002E80003F0DECF04F0DECF05F00150D96EDA6AF4
:1002F800060ED926DF50D96EDA6ADECF06F0DECFD9
:1003080007F0DECF08F0DECF09F00250065C0A6E77
:10031800035007580B6E045008580C6E05500958C6
:100328000D6E0D500C100BE1E90E0A5C030E0B5814
:10033800D8A0A1EF01F0A3EF01F0FDEF01F001500B
:10034800D96EDA6A070ED926DECF02F0DECF03F0C7
:10035800DECF04F0DECF05F00150D96EDA6A060E62
:10036800D926DF50D96EDA6ADECF06F0DECF07F085
:10037800DECF08F0DECF09F00250065C0A6E0350AB
:1003880007580B6E045008580C6E055009580D6E2E
:100398000D500C1009E1D10E0A5C070E0B58D8B0AD
:1003A800D8EF01F0DAEF01F0FDEF01F00150D96E5E
:1003B800DA6A0E0ED926010EDF6E0150D96EDA6A9E
:1003C8000D0ED926DF50D8B4ECEF01F0EEEF01F0B6
:1003D800F6EF01F00150D96EDA6A0D0ED926DF6A00
:1003E800FDEF01F00150D96EDA6A0D0ED926010E23
:1003F800DF6E0150D96EDA6A040ED926DF50026E1C
:100408000150D96EDA6ADECF03F0DDCF04F003C005
:10041800D9FF04C0DAFFDF5002140009D8A417EF8F
:1004280002F019EF02F086EF02F00150D96EDA6A95
:100438000B0ED926DF50D8B424EF02F026EF02F0D5
:1004480086EF02F00150D96EDA6A070ED926DECFA0
:1004580002F0DECF03F0DECF04F0DECF05F001506E
:10046800D96EDA6A060ED926DF50D96EDA6ADECF7F
:1004780006F0DECF07F0DECF08F0DECF09F002503D
:10048800065C0A6E035007580B6E045008580C6E31
:10049800055009580D6E0D500C100BE1D10E0A5C79
:1004A800070E0B58D8A05BEF02F05DEF02F086EF65
:1004B80002F00150D96EDA6A0E0ED926DF6A0150B1
:1004C800D96EDA6A0F0ED926010EDF6E0150D96E89
:1004D800DA6A0D0ED926DF50D8B475EF02F077EF3F
:1004E80002F07FEF02F00150D96EDA6A0D0ED926BC
:1004F800DF6A86EF02F00150D96EDA6A0D0ED9264E
:10050800010EDF6E0150D96EDA6A050ED926DF506A
:10051800FF0A026E0150D96EDA6A020ED926DECFC2
:1005280003F0DDCF04F003C0D9FF04C0DAFF0250A6
:10053800DF121200FBEC0BF0F4EC0BF0BCEC0AF051
:10054800E0EC0BF0930E016E0F0E026E810E036E3F
:100558000F0E046E8A0E056E0F0E066E020E076EE3
:10056800050E086EF90E096E12EC05F020EEE5F0A6
:100578000F0EEBCFDBFFE806FCE2930E016E0F0EC9
:10058800026E810E036E0F0E046E8A0E056E0F0E3C
:10059800066E030E076E050E086EF90E096E12EC54
:1005A80005F020EE75F00F0EEBCFDBFFE806FCE25E
:1005B800930E016E0F0E026E810E036E0F0E046E07
:1005C8008A0E056E0F0E066E040E076E050E086E77
:1005D800F90E096E12EC05F020EE85F00F0EEBCF48
:1005E800DBFFE806FCE2930E016E0F0E026E810E31
:1005F800036E0F0E046E8A0E056E0F0E066E020E47
:10060800076E060E086EF90E096E12EC05F020EE64
:10061800C5F00F0EEBCFDBFFE806FCE2930E016E90
:100628000F0E026E810E036E0F0E046E8A0E056E9B
:100638000F0E066E030E076E060E086EF90E096E93
:1006480012EC05F020EE95F00F0EEBCFDBFFE8067D
:10065800FCE2930E016E0F0E026E810E036E0F0EFA
:10066800046E8A0E056E0F0E066E040E076E060ED9
:10067800086EF90E096E12EC05F020EED5F00F0E9B
:10068800EBCFDBFFE806FCE2930E016E0F0E026E65
:10069800810E036E0F0E046E8A0E056E0F0E066E27
:1006A800020E076E070E086EF90E096E12EC05F0C1
:1006B80020EEA5F00F0EEBCFDBFFE806FCE2930E71
:1006C800016E0F0E026E810E036E0F0E046E8A0EFF
:1006D800056E0F0E066E030E076E070E086EF90EF6
:1006E800096E12EC05F020EEB5F00F0EEBCFDBFF34
:1006F800E806FCE2930E016E0F0E026E810E036E89
:100708000F0E046E8A0E056E0F0E066E040E076E2F
:10071800070E086EF90E096E12EC05F020EE65F072
:100728000F0EEBCFDBFFE806FCE2010E0001626F63
:10073800636B646B640E016E000E026E000E036E36
:10074800000E046EECEC0AF041EC09F0E50E016EC7
:1007580009EC00F0750E016E09EC00F0850E016ED3
:1007680009EC00F0C50E016E09EC00F0950E016E63
:1007780009EC00F0D50E016E09EC00F0A50E016E33
:1007880009EC00F0B50E016E09EC00F0650E016E83
:1007980009EC00F00001F151D8A4D5EF03F0D7EF30
:1007A80003F0E7EF03F0F351D8A4DDEF03F0DFEF38
:1007B80003F0E7EF03F0F451D8B4E5EF03F0E7EF07
:1007C80003F01FEF04F0F16BFF0EB6EC0BF0000125
:1007D800606F60515CEC06F0496E49C030F0316AD8
:1007E80063C032F064C033F0A7EC08F00001616F19
:1007F8006151060DF350642763C013F064C014F010
:10080800200E87EC0BF0060E000164276C0E646561
:1008180010EF04F012EF04F014EF04F0632B646B94
:10082800070E63651AEF04F01CEF04F01FEF04F0E5
:10083800636B10EC0AF000018151D8B426EF04F084
:1008480028EF04F030EF04F0816B10EC0AF000019F
:10085800636B646BE0EC0BF000019151D8B437EF97
:1008680004F039EF04F044EF04F0916B050E306E9C
:10087800010E316E000E326E000E336EA7EC08F0DA
:100888000001D151D8B44BEF04F04DEF04F05BEF09
:1008980004F0D16BD251D8B454EF04F056EF04F001
:1008A80059EF04F0626B5BEF04F0010E626FA15127
:1008B800D8B461EF04F063EF04F06AEF04F0A16BC1
:1008C800F4EC08F001C0FDF002C0FEF00001E151B7
:1008D800D8B471EF04F073EF04F081EF04F0E16B2A
:1008E800E251D8B47AEF04F07CEF04F07FEF04F023
:1008F800FF6B81EF04F0010EFF6FB151D8B487EFA1
:1009080004F089EF04F094EF04F0B16B000E306E40
:10091800000E316E63C032F064C033F0A7EC08F00B
:100928000001C151D8B49BEF04F09DEF04F09EEF95
:1009380004F0C16BFDC001F0FEC002F0010E036EB1
:10094800FFC004F03F0E056E7E0E066E050E076EA4
:10095800000E086ED0EC05F0F5C00AF0F6C00BF0FA
:10096800F7C00CF0F8C00DF0100E0E6E0E0E0F6EE4
:10097800000E106E000E116E08EC08F00A50546E4E
:10098800100E056E0E0E066E000E076E000E086E37
:10099800F5C001F0F6C002F0F7C003F0F8C004F0AB
:1009A800CCEC09F001C00AF002C00BF003C00CF057
:1009B80004C00DF03C0E0E6E000E0F6E000E106E91
:1009C800000E116E08EC08F00A50536EF5C001F0E5
:1009D800F6C002F0F7C003F0F8C004F03C0E056E54
:1009E800000E066E000E076E000E086ECCEC09F0C5
:1009F8000150526E00016251D8B405EF05F007EFBF
:100A080005F0AAEF03F053C03AF052C03BF054503F
:100A1800E0EC06F0AAEF03F007EF00F003C012F0D5
:100A280004C013F005C014F006C015F03CEF05F043
:100A3800010E166E7FEF05F0020E166E7FEF05F0C1
:100A4800040E166E7FEF05F0080E166E7FEF05F0A8
:100A5800100E166E7FEF05F0200E166E7FEF05F074
:100A6800400E166E7FEF05F0800E166E7FEF05F0D4
:100A78000750000AD8B41CEF05F0010AD8B420EFDB
:100A880005F0030AD8B424EF05F0010AD8B428EF1A
:100A980005F0070AD8B42CEF05F0010AD8B430EFF6
:100AA80005F0030AD8B434EF05F0010AD8B438EFDA
:100AB80005F07FEF05F0FE0E176EA2EF05F0FD0EB4
:100AC800176EA2EF05F0FB0E176EA2EF05F0F70EFA
:100AD800176EA2EF05F0EF0E176EA2EF05F0DF0E0E
:100AE800176EA2EF05F0BF0E176EA2EF05F07F0E8E
:100AF800176EA2EF05F00850000AD8B45FEF05F0B2
:100B0800010AD8B463EF05F0030AD8B467EF05F01B
:100B1800010AD8B46BEF05F0070AD8B46FEF05F0F7
:100B2800010AD8B473EF05F0030AD8B477EF05F0DB
:100B3800010AD8B47BEF05F0A2EF05F001C0D9FF98
:100B480002C0DAFF1650DF1201C0D9FF02C0DAFF77
:100B58001750DF161750FF0A116E05C0D9FF06C0DF
:100B6800DAFF1150DF1209C018F01D6A1E6A1F6AE9
:100B7800206A216A000E196E000E1A6E000E1B6E96
:100B8800000E1C6E20EE12F000EE01F00F0EDBCF0F
:100B9800EBFFE806FCE212000150096E02500A6EF3
:100BA8000B6A0C6A4A500001F95D0D6E4B50FA59F8
:100BB8000E6E4C50FB590F6E4D50FC59106E09507B
:100BC8000D5C0A500E580B500F580C501058D8A0F6
:100BD800F0EF05F0F2EF05F01DEF06F00350D8B482
:100BE800F8EF05F0FAEF05F01DEF06F0F9C04AF04E
:100BF800FAC04BF0FBC04CF0FCC04DF00450D8B428
:100C080008EF06F00AEF06F010EF06F0010EF527E0
:100C1800000EF623F723F8230450D8A416EF06F0A5
:100C280018EF06F01DEF06F0F507000EF65BF75B10
:100C3800F85BF551055CF6510658F7510758F8511D
:100C48000858D8B02AEF06F02CEF06F03CEF06F073
:100C5800FF51D8B432EF06F034EF06F03CEF06F05F
:100C6800000EF56F000EF66F000EF76F000EF86FAE
:100C7800F551055CF6510658F7510758F8510858D0
:100C8800D8B049EF06F04BEF06F05BEF06F0FF51E6
:100C9800D8A451EF06F053EF06F05BEF06F005C05D
:100CA800F5F006C0F6F007C0F7F008C0F8F012003B
:100CB8002F6E2FC013F0146A000E166E0A0E156EF2
:100CC800B1EC07F013502E6E000E166E640E156E02
:100CD8002FC013F0146AB1EC07F013C019F014C058
:100CE8001AF0000E1C6E0A0E1B6E50EC07F019501D
:100CF8002D6E2FC019F01A6A000E1C6E640E1B6E42
:100D080050EC07F01950276E630E2F648EEF06F033
:100D180090EF06F0A8EF06F0000E236E000E246E8A
:100D2800000E256E000E266E27505AEC08F0236E32
:100D38002D505AEC08F0246E2E505AEC08F0256E0F
:100D4800266A230EDFEF06F0090E2F64AEEF06F0D9
:100D5800B0EF06F0CAEF06F0640E2F60B6EF06F0AB
:100D6800B8EF06F0CAEF06F0000E286E000E296EE6
:100D7800000E2A6E2D505AEC08F0286E2E505AECB0
:100D880008F0296E2A6A280EDFEF06F00A0E2F6097
:100D9800D0EF06F0D2EF06F0DEEF06F0000E2C6E74
:100DA800000E2B6E2E505AEC08F02B6E2C6A2B0E70
:100DB800DFEF06F0000E1200486E3BC013F0146A15
:100DC800000E166E0A0E156EB1EC07F01350456E44
:100DD8003AC013F0146A000E166E0A0E156EB1ECC6
:100DE80007F01350466E48C013F0146A000E166ED2
:100DF8000A0E156EB1EC07F01350476E3BC019F0A0
:100E08001A6A000E1C6E0A0E1B6E50EC07F0195081
:100E18003B6E3AC019F01A6A000E1C6E0A0E1B6E61
:100E280050EC07F019503A6E48C019F01A6A000ED3
:100E38001C6E0A0E1B6E50EC07F01950486E20EE1F
:100E48003CF0080EDE6AE806FDE248505AEC08F06D
:100E58003C6E47505AEC08F03D6E3A0E3E6E3A50E2
:100E68005AEC08F03F6E46505AEC08F0406E3A0EC5
:100E7800416E3B505AEC08F0426E45505AEC08F06F
:100E8800436E446A3C0E306E316A070E326E000EB5
:100E9800336EA7EC08F012001E6A1CBE58EF07F06C
:100EA80056EF07F05EEF07F01B6C1C1ED8B01C2A2B
:100EB800010E1E6E1ABE65EF07F063EF07F06BEFC9
:100EC80007F0196C1A1ED8B01A2A010E1E1A000E45
:100ED800206E000E1F6E1B501C10D8B476EF07F062
:100EE80078EF07F0A0EF07F0010E1D6E80EF07F016
:100EF800D8901B361C361D2A1CAE85EF07F087EFED
:100F080007F07CEF07F0D8901F3620361B50195C8D
:100F18001C501A58D8A093EF07F095EF07F09AEFF6
:100F280007F01B50195E1C501A5A1F80D8901C32AB
:100F38001B321D2E87EF07F01E50D8B4A6EF07F01E
:100F4800A8EF07F0ACEF07F01F6C201ED8B0202ADE
:100F58001FC019F020C01AF01200186A14BEB9EFA9
:100F680007F0B7EF07F0BFEF07F0136C141ED8B007
:100F7800142A010E186E16BEC6EF07F0C4EF07F06C
:100F8800CAEF07F0156C161ED8B0162A15501610A1
:100F9800D8B4D1EF07F0D3EF07F0F7EF07F0010E61
:100FA800176EDBEF07F0D89015361636172A16AEEF
:100FB800E0EF07F0E2EF07F0D7EF07F01550135C0A
:100FC80016501458D8A0EBEF07F0EDEF07F0F1EF4B
:100FD80007F01550135E1650145AD8901632153271
:100FE800172EE2EF07F01850D8B4FDEF07F0FFEF27
:100FF80007F003EF08F0136C141ED8B0142A13C0BE
:1010080013F014C014F01200000E126E000E136ECE
:10101800000E146E000E156E0E500F1010101110E9
:10102800D8B419EF08F01BEF08F051EF08F0010EE3
:10103800166E25EF08F0D8900E360F36103611369A
:10104800162A11AE2AEF08F02CEF08F01FEF08F06F
:10105800D89012361336143615360E500A5C0F50D7
:101068000B5810500C5811500D58D8A03EEF08F0EE
:1010780040EF08F049EF08F00E500A5E0F500B5A87
:1010880010500C5A11500D5A1280D890113210324B
:101098000F320E32162E2CEF08F012C00AF013C0D1
:1010A8000BF014C00CF015C00DF01200016E7BEFB0
:1010B80008F0300EA6EF08F0310EA6EF08F0320E59
:1010C800A6EF08F0330EA6EF08F0340EA6EF08F0EE
:1010D800350EA6EF08F0360EA6EF08F0370EA6EF8D
:1010E80008F0380EA6EF08F0390EA6EF08F0015008
:1010F800000AD8B45DEF08F0010AD8B460EF08F030
:10110800030AD8B463EF08F0010AD8B466EF08F010
:10111800070AD8B469EF08F0010AD8B46CEF08F0F0
:10112800030AD8B46FEF08F0010AD8B472EF08F0D8
:101138000F0AD8B475EF08F0010AD8B478EF08F0B0
:10114800A6EF08F0120030503110D8A4AEEF08F026
:10115800B0EF08F0BCEF08F021EE00F010EE34F02C
:10116800040EDBCFE3FFE806FCE2340E306E316A92
:10117800396AE4EF08F032C013F033C014F0395084
:101188003024D96E000E3120DA6EDF5087EC0BF078
:10119800060E33267A0E3364D4EF08F0D6EF08F043
:1011A800D8EF08F0322A336A070E3264DEEF08F00F
:1011B800E0EF08F0E3EF08F0000EF3EF08F0392A4B
:1011C80039503024D96E000E3120DA6EDF50D8A4A1
:1011D800F0EF08F0F2EF08F0BFEF08F03950120016
:1011E800040E5D185E10D8A4FCEF08F0FEEF08F0BE
:1011F8001CEF09F0000E5E6E000E5D6E1CEF09F02C
:10120800030E066EE80E056E3AEF09F0000E066E44
:10121800640E056E3AEF09F0000E066E0A0E056EB2
:101228003AEF09F0000E066E010E056E3AEF09F06E
:101238005DC003F05EC004F00450000AD8B427EF84
:1012480009F03AEF09F00350000AD8B404EF09F0A6
:10125800010AD8B40AEF09F0030AD8B410EF09F06C
:10126800010AD8B416EF09F03AEF09F05D4A5E2A90
:1012780005C001F006C002F01200EAEC0BF09296ED
:10128800929880888086828C010E016E000E026E14
:10129800000E036E000E046EECEC0AF08098010E4E
:1012A800016E000E026E000E036E000E046EECEC72
:1012B8000AF080888096A20E02EC0CF0A00E02ECD8
:1012C8000CF0C80E02EC0CF0250E02EC0CF02F0E00
:1012D80002EC0CF0810E02EC0CF0200E02EC0CF08B
:1012E800400E02EC0CF0B00E02EC0CF0100E02EC0A
:1012F8000CF0000E02EC0CF0AF0E02EC0CF0A60E97
:1013080002EC0CF080861200460EF66E170EF76E91
:10131800000EF86E01EE00F010EE26F00900F5CF91
:10132800EEFFE550E150FAE1120EF66E180EF76E78
:10133800000EF86E0900F5CFFDF00900F5CFFEF0BC
:101348000900F5CFFFF0150EF66E180EF76E000EB9
:10135800F86E0900F5CF5DF00900F5CF5EF001EEFB
:1013680026F0200EEE6AE806FDE100EEF5F0080E24
:10137800EE6AE806FDE100EE4AF00F0EEE6AE806B6
:10138800FDE15F905F92000EF86E00019EEF02F0A3
:101398000550061007100810D8B4D5EF09F0D7EF9C
:1013A80009F007EF0AF0010E096EE1EF09F0D89095
:1013B8000536063607360836092A08AEE6EF09F07C
:1013C800E8EF09F0DBEF09F00550015C0650025820
:1013D8000750035808500458D8A0F5EF09F0F7EF64
:1013E80009F0FFEF09F00550015E0650025A075058
:1013F800035A0850045AD890083207320632053288
:10140800092EE8EF09F001C001F002C002F003C0A4
:1014180003F004C004F012000C6AB00E0C24026E33
:10142800036A000E0322000E056E100E046E000EF5
:10143800076E000E066E030E4DEC0BF0070E0C64E3
:1014480028EF0AF02AEF0AF02BEF0AF00C6A0B6A71
:10145800000E02EC0CF00B2A7F0E0B6436EF0AF03C
:1014680038EF0AF02CEF0AF00C2A070E0C643FEF55
:101478000AF041EF0AF011EF0AF0000E036EB00E09
:10148800026E000E056E100E046E000E076E000E42
:10149800066E030E4DEC0BF0120059C001F05AC055
:1014A80002F05BC003F05CC004F02D0E056E7F0EE9
:1014B800066E950E076E4C0E086E87EC0AF0010E4C
:1014C8000124596E000E02205A6E000E03205B6E36
:1014D800000E04205C6E59C00FF05AC010F05BC0BB
:1014E80011F05CC012F0120E7FEF0AF0D8901232A1
:1014F800113210320F32E82E7AEF0AF00FC00DF0D9
:1015080010C00EF01200000E096E000E0A6E000EDA
:101518000B6E000E0C6E01A094EF0AF096EF0AF025
:101528009EEF0AF00550092606500A2207500B22A2
:1015380008500C22D8900536063607360836D8905B
:101548000432033202320132015002100310041037
:10155800D8A4B1EF0AF0B3EF0AF08FEF0AF009C090
:1015680001F00AC002F00BC003F00CC004F0120036
:10157800F28EF28CF29AF298F296F19EF19CF19A20
:10158800F198F194F190F09EF09CF098F0969D9C63
:101598009D9A9D989D969D949D929D80A09EA09CAD
:1015A800A09AA098A096A094A092A0909F9C9F9A81
:1015B8009F989F969F949F929F80A29EA29CA29A7A
:1015C800A298A296A294A292A290D09ED09C120019
:1015D800F9C009F0FAC00AF0FBC00BF0FCC00CF02F
:1015E80009500001F95D056E0A50FA59066E0B5054
:1015F800FB59076E0C50FC59086E0150055C0250EF
:1016080006580350075804500858D8A00EEF0BF09E
:1016180010EF0BF0F4EF0AF01200106E0B500F0BE6
:10162800116E0B380F0B126EB00E10C00CF00D6A55
:101638000C10026E0D50036E100E12C00EF00F6AE1
:101648000E10046E0F50056E11C006F0076A030EE7
:101658004DEC0BF01200829C076A42EF0BF007502A
:101668000224056E000E0320066E05C0F6FF06C0B4
:10167800F7FF0800F550D4EC0BF0072A0450075C7C
:10168800D8A049EF0BF04BEF0BF033EF0BF0828C47
:101698001200086E8096829C020E096E0A6A5EEF3E
:1016A8000BF00950D96EDA6ADF50D4EC0BF0020E59
:1016B80009260A2A08500A5CD8A065EF0BF067EFE4
:1016C8000BF055EF0BF08086828C120006009DA06F
:1016D80070EF0BF072EF0BF085EF0BF09EA077EF39
:1016E8000BF079EF0BF085EF0BF0200ECE26D10E24
:1016F800CF6E9E90010E0001F927000EFA23FB23FE
:10170800FC235F921100156E14C00BF0135011ECFE
:101718000BF01550050DFF0EF324026E7A0EF4201F
:10172800036E050E046E2FEC0BF01450050F0B6EB4
:10173800135011EC0BF0000E02EC0CF012004E5599
:101748004C4C00CFF0E8E2E5F22C20CCE8F0212167
:1017580021212048656C6C6F2C20576F726C6421B6
:1017680021212100196E51EC0AF00DC013F00EC0B2
:1017780014F0010E1924156E166A000E1622B1EC2B
:1017880007F013501200FF0E0124036EFF0E022013
:10179800046E03C059F004C05AF05B6A5C6A120018
:1017A800016E01C0C9FFC7A0DCEF0BF0DEEF0BF044
:1017B800D7EF0BF0C9501200CF500001F925016E88
:1017C800000EFA21026EC7EC0BF012009392938080
:1017D800949E949C828C320EC66EC78EC79C120053
:1017E800050ECD6E200ECE6ED10ECF6E1200C70E36
:1017F800D56E200ED66ED10ED76E1200026E829C68
:0F1808000250D4EC0BF0828C1200E803010100B7
:1075BE00000000FE7F0240FA5FFA5FFA5FFA5FFAA0
:1075CE005FFA5F0240FA5FFA5FFA5FFA5FFA5FFAFC
:1075DE005F0240FA5FFA5FFA5FFA5FFA5FFA5F02E4
:1075EE0040FA5FFA5FFA5FFA5FC243DE7B1008F083
:1075FE000F0000FE7F0240FA5FFA5FFA5FFA5FFA51
:10760E005FFA5F0240FA5FFA5FFA5FFA5FFA5FFABB
:10761E005F0240FA5FFA5FFA5FFA5FFA5FFA5F02A3
:10762E0040FA5F0A500A507A5E4242DE7B1008F042
:10763E000F0000FE7F0240FA5FFA5FFA5FFA5FFA10
:10764E005FFA5F0240FA5FFA5FFA5FFA5FFA5FFA7B
:10765E005F0240FA5FFA5FFA5FFA5FFA5FFA5F0263
:10766E0040024002400240024002401E781008F0E4
:10767E000F0000FE7F0240FA5FFA5FFA5FFA5FFAD0
:10768E005FFA5F0240FA5FFA5FFA5FFA5FFA5FFA3B
:10769E005F0240FA5F0A500A500A500A50FA5F021F
:1076AE0040024002400240024002401E781008F0A4
:1076BE000F0000FE7F0240FA5FFA5FFA5FFA5FFA90
:1076CE005FFA5F0240FA5FFA5FFA5FFA5FFA5FFAFB
:1076DE005F0240024002400240024002400240026D
:1076EE0040024002400240024002401E781008F064
:1076FE000F0000FE7F0240FA5FFA5FFA5FFA5FFA50
:10770E005FFA5F0240FA5F0A500A500A500A50FAB6
:10771E005F0240024002400240024002400240022C
:10772E0040024002400240024002401E781008F023
:10773E000F0000FE7F0240FA5FFA5FFA5FFA5FFA0F
:10774E005FFA5F02400240024002400240024002E5
:10775E00400240024002400240024002400240020B
:10776E0040024002400240024002401E781008F0E3
:10777E000F0000FE7F0240FA5F0A500A500A500ABC
:10778E0050FA5F02400240024002400240024002B4
:10779E0040024002400240024002400240024002CB
:1077AE0040024002400240024002401E781008F0A3
:1077BE000F0000FE7F0240024002400240024002E3
:1077CE00400240024002400240024002400240029B
:1077DE00400240024002400240024002400240028B
:1077EE0040024002400240024002401E781008F063
:1077FE000F0000000000000000000000000000006C
:10780E00000000000000000000000000000000006A
:10781E00000000000000000000000000000000005A
:10782E00000000000000000000000000000000004A
:10783E00000000000000000000000000000000003A
:10784E000000000000000000401F00F80300E0FFF1
:10785E0000FC5F00F0FF07FFFF00BC7F0FDFFF01A2
:10786E00DFFF1FAFFF03EFFF1F55D7C7F7FF1F80C7
:10787E00EEFFFFFF3B55D5FDFFFF7700E87AFFFFD8
:10788E007F55D5DD47FF7F00A0FE03FE6F55D5FF68
:10789E0001FC7F00807700F87F55D57F00F07F00D8
:1078AE00C03C00F03F55F57EC0F03F00E03FE0E108
:1078BE003B55BD3FF0F11D00F83FE0F01C55DF7F5A
:1078CE0000781D00EEFF01B81E557F80075E1F80F9
:1078DE003B80072E0ED53F000E571F800F00CC8128
:1078EE000FD50F00CCD11FE00600FCE83FF50600D7
:1078FE007CF47D6006003CB8EE7506001CFCFF7043
:10790E0006060EBEFE750C0F0777F7600C8F83A36D
:10791E00EA7538C4C1557FE038E0E0807FD5F17D4F
:10792E0070D57F80C13F30C03FD5C31F78F51F0093
:10793E0007001C781E5507005C3D7F003C000FBE03
:10794E00E3553D8057FFC100F88003E6E057F5E1AF
:10795E00D5F3F107C0E7C0F9735E557FD51D1F3C07
:10796E00003EE00D1E70555575079FF00000300764
:10797E00FBE05555350FF3800300B8F960005755FD
:10798E00DDF970001E00F8F0FC007C55FDF0DD0006
:10799E00F000F8B8EF00E055FD19D700C001B81F90
:1079AE00E300005735C6D700000F30CEE100005C73
:1079BE00F5FBD5000078C0FBF8000070D57FFD0008
:1079CE0000E003E8FF0000C057F5FF0000000FFEC7
:1079DE00FF0000005FFFFF000000BCFFFF00000083
:1079EE00F0FFFF000000F0FFFFF00FFC3FFC3F0E2A
:1079FE0070066006600E70FC3FFC3FF00F0000004A
:107A0E0000186018601860FE7FFE7FFE7F00600029
:107A1E006000600000000000001C600E700678061A
:107A2E007C067E066F8E67FE63FC61F86000600068
:107A3E00001C380E700660C660C660C660E671FE39
:107A4E003FBC3F381F00000000000E000FC00DE0CD
:107A5E000C380C1C0CFE7FFE7FFE7F000C000C0011
:107A6E00000038FE70FE60FE60C660C660C671C65D
:107A7E003F863F060F00000000E00FF83FFC3F9CE2
:107A8E0070CE60C660C671C67F863F001F000000C4
:107A9E0000064006700678063E860FC607F6017E83
:107AAE00003E000E0000000000381E7C3FFE7FC628
:107ABE0071C661C661C673FE7F7C3F381E00000032
:107ACE0000F000FC61FC638E63066306730E39FCE6
:107ADE003FFC1FF007000000000000000000000047
:107AEE0000F03CF03CF03C00000000000000000004
:107AFE00007F7F7F7F7F7F7F7F7F7F0808780000FA
:107B0E0000000F080808080F000000007F000008A2
:107B1E0008080808001C3E1C00001C361C00000053
:107B2E000000000000000000000000000000003E09
:107B3E003E000000000000000000000000000000F9
:107B4E000008087F080800081C3E0014367F361413
:107B5E00005F005F000E117F017F08080F08080804
:107B6E000878080808087F000004027F020400005D
:107B7E007F080808083E1C08081C3E080800000084
:107B8E0000000000000000000000000000000000E7
:107B9E0000000000000000065F060000070007005E
:107BAE00147F147F1406497F4930433308666136CB
:107BBE0049552250000007000000003E41000041E0
:107BCE003E0000000502050008083E08080040308F
:107BDE0000000008080800000020000000601806E1
:107BEE00003E5149453E00427F40000062514946E9
:107BFE0000224149361814127F0000274949313EB0
:107C0E00494949320001710D033649494936264921
:107C1E0049493E00001200000040320000081422C4
:107C2E004100242424242400412214080002510976
:107C3E0006324979413E7E1111117E7F49494936FE
:107C4E003E414141227F4141221C7F494949007FEB
:107C5E00090901003E415131727F0808087F004139
:107C6E007F41000020413F017F08142241007F40E8
:107C7E0040407F020C027F7F0408107F3E4141414D
:107C8E003E7F090906003E4151215E7F09192946B2
:107C9E00264949493201017F01013F4040403F1FC3
:107CAE002040201F3F4030403F63140814630708F4
:107CBE007008076151494543007F41410000061895
:107CCE0060000041417F0004020102044040404038
:107CDE0040000001060000205454787F44443800D0
:107CEE0038444444003844447F003854541800103B
:107CFE007E1102000854543C007F040478000000FA
:107D0E007D000020403D00007F1028440000417F90
:107D1E0040007C047804787C0404780038444444A1
:107D2E00387C242418001824247C00007C080404C9
:107D3E000854542000043F4420003C4040207C1C4A
:107D4E002040201C3C4030403C4428102844004C2D
:107D5E00503C004464544C44000836410000007FFF
:107D6E00000000413608000201020402000000007B
:107D7E0000000000000000000000000000000000F5
:107D8E0000000000000000000000000000000000E5
:107D9E0000000000000000000000000000000000D5
:107DAE0000000000000000000000000000000000C5
:107DBE0000000000000000000000000000000000B5
:107DCE0000000000000000000000000000000000A5
:107DDE000000000000000000000000000000000095
:107DEE000000000000000000000000000000000085
:107DFE000000000000000000000000000000000075
:107E0E000000000000000000000000000000000064
:107E1E000000000000000000000000000000000054
:107E2E000000000000000000000000000000000044
:107E3E0000000000004A5529007C5554555400009E
:107E4E000000003E49494922081422081404040483
:107E5E00040C0008080800000000000000017C016E
:107E6E0000000205020000242E240000007F000006
:107E7E0000000000000000000000000000000006EE
:107E8E000F7F017F000002000038555419000000DA
:107E9E000000003854544400140822140800007ADC
:107EAE00000026494949320008545420000074004D
:107EBE00007E1111117E7F494949317F494949366A
:107ECE007F01010103603E21217F7F4949494977A6
:107EDE00087F087722414949367F1008047F7F10BA
:107EEE0009047F7F0814224120403F017F7F020C4E
:107EFE00027F7F0808087F3E4141413E7F0101011C
:107F0E007F7F090909063E4141412201017F01019E
:107F1E002748483F000E117F110E63140814633F6B
:107F2E0020203F600F08087F007F407F407F3F206A
:107F3E003F207F017F4848307F4830007F7F484890
:107F4E003000224149493E7F083E413E46291909EB
:107F5E007F00205454783C4A4930007C5454280009
:107F6E00007C040400603824247C38545418006CBF
:107F7E00107C106C00445428007C2010087C7C215E
:107F8E0011097C7C10284400403C047C007C0810C5
:107F9E00087C7C10107C0038444438007C04047C3F
:107FAE00007C24241800003844440004047C04049B
:107FBE00004C503C0018247C241844281028443CC3
:107FCE0020203C60001C107C007C407C407C3C20CF
:107FDE003C207C047C5070007C5070007C007C50F7
:107FEE00700000545438007C107C447C4834147C5F
:027FFE00000081
:020000040030CA
:0E000000240E191EFF8080FF0FC00FE00F407E
:00000001FF
